A0002.0a20241013205258497410TRIPAG                        0000000051309N000001
L020241013RE000002
CV00893530300010800021660803820241012000000020241111C3000000091540000000018300000008971000485464******76380102216608038   000000045770000000009200000004485634000001152811     0000004805700020010000000000000000000000000000000000000000000000000000000000000000000000000000000                              BRA0000513090000513090893530300010820241111  120085                       00 00000000000000003
CV00893530300010800021691807820241012000000020241014D3000000007690000000000700000000762000485464******93830000000000000000000000000000000000000000000000000634000001152811     0000003532210020030000000000000000000000000000000000000000000000000000000000000000000000000000000                              BRA0000513090000513090893530300010820241014  120120                       00 00000000000000004
CV00893530300010800021719783520241012000000020241014D3000000006990000000000600000000693000421924******45140000000000000000000000000000000000000000000000000634000001152811     0000002644810020030000000000000000000000000000000000000000000000000000000000000000000000000000000                              BRA0000513090000513090893530300010820241014  000019                       00 00000000000000005
CV00893530300010800021719842220241012000000020241014D3000000007400000000000600000000734000421924******45140000000000000000000000000000000000000000000000000634000001152811     0000003645210020030000000000000000000000000000000000000000000000000000000000000000000000000000000                              BRA0000513090000513090893530300010820241014  000020                       00 00000000000000006
CV00893530300010800021720258820241012000000020241014D3000000044790000000003900000004440000439267******33410000000000000000000000000000000000000000000000000634000001152811     0000003246130020030000000000000000000000000000000000000000000000000000000000000000000000000000000                              BRA0000513090000513090893530300010820241014  120144                       00 00000000000000007
CV00893530300010800021724253620241012000000020241014D3000000045390000000003900000004500000485464******62090000000000000000000000000000000000000000000000000634000001152811     0000001664090020030000000000000000000000000000000000000000000000000000000000000000000000000000000                              BRA0000513090000513090893530300010820241014  120151                       00 00000000000000008
CV00893530300010800021630655520241012000000020241014D3000000046000000000004000000004560000439267******23710000000000000000000000000000000000000000000000000634000001152811     0000007993260020030000000000000000000000000000000000000000000000000000000000000000000000000000000                              BRA0000513090000513090893530300010820241014  000005                       00 00000000000000009
CV00893530300010800021647207820241012000000020241014D3000000059860000000005200000005934000439267******70100000000000000000000000000000000000000000000000000634000001152811     0000003190480020030000000000000000000000000000000000000000000000000000000000000000000000000000000                              BRA0000513090000513090893530300010820241014  120054                       00 00000000000000010
CV00893530300010800021650244520241012000000020241014D3000000165690000000014400000016425000439267******09030000000000000000000000000000000000000000000000000634000001152811     0000005657940020030000000000000000000000000000000000000000000000000000000000000000000000000000000                              BRA0000513090000513090893530300010820241014  120056                       00 00000000000000011
CV00893530300010800021662004920241012000000020241014D3000000023890000000002100000002368000417402******63940000000000000000000000000000000000000000000000000634000001152811     0000002P93F40020030000000000000000000000000000000000000000000000000000000000000000000000000000000                              BRA0000513090000513090893530300010820241014  120089                       00 00000000000000012
CV00893530300010800021676971620241012000000020241014D3000000010670000000000900000001058000485464******11750000000000000000000000000000000000000000000000000634000001152811     0000001479440020030000000000000000000000000000000000000000000000000000000000000000000000000000000                              BRA0000513090000513090893530300010820241014  120106                       00 00000000000000013
CV00893530300010800021716191520241012000000020241014D3000000044000000000003800000004362000498453******36450000000000000000000000000000000000000000000000000634000001152811     0000001629970020030000000000000000000000000000000000000000000000000000000000000000000000000000000                              BRA0000513090000513090893530300010820241014  120140                       00 00000000000000014
CV00893530300010800021618772120241012000000020241014D3000000015170000000001300000001504000410715******81040000000000000000000000000000000000000000000000000634000001152811     0000001780710020030000000000000000000000000000000000000000000000000000000000000000000000000000000                              BRA0000513090000513090893530300010820241014  120008                       00 00000000000000015
CV00893530300010800021706380220241012000000020241211C3000000200000000000040000000019600000533516******50170202217063802   000000100000000000020000000009800634000001152811     0000000182860010020000000000000000000000000000000000000000000000000000000000000000000000000000000                              BRA0000513090000513090893530300010820241211  120127                       00 00000000000000016
CV00893530300010800021624007620241012000000020241211C3000000118950000000023800000011657000539090******70720202216240076   000000059470000000011900000005828634000001152811     0000000846350010020000000000000000000000000000000000000000000000000000000000000000000000000000000                              BRA0000513090000513090893530300010820241211  120015                       00 00000000000000017
CV00893530300010800021641298320241012000000020241211C3000000091390000000018300000008956000550209******35880202216412983   000000045690000000009100000004478634000001152811     0000004649730010020000000000000000000000000000000000000000000000000000000000000000000000000000000                              BRA0000513090000513090893530300010820241211  120052                       00 00000000000000018
CV00893530300010800021654460020241012000000020241211C3000000085000000000017000000008330000535016******55740202216544600   000000042500000000008500000004165634000001152811     0000005560170010020000000000000000000000000000000000000000000000000000000000000000000000000000000                              BRA0000513090000513090893530300010820241211  120070                       00 00000000000000019
CV00893530300010800021662833320241012000000020241211C3000000300000000000060000000029400000546997******48470202216628333   000000150000000000030000000014700634000001152811     0000002781940010020000000000000000000000000000000000000000000000000000000000000000000000000000000                              BRA0000513090000513090893530300010820241211  120090                       00 00000000000000020
CV00893530300010800021706380220241012000000020241111C3000000200000000000040000000019600000533516******50170102217063802   000000100000000000020000000009800634000001152811     0000000182860010020000000000000000000000000000000000000000000000000000000000000000000000000000000                              BRA0000513090000513090893530300010820241111  120127                       00 00000000000000021
CV00893530300010800021624007620241012000000020241111C3000000118950000000023800000011657000539090******70720102216240076   000000059480000000011900000005829634000001152811     0000000846350010020000000000000000000000000000000000000000000000000000000000000000000000000000000                              BRA0000513090000513090893530300010820241111  120015                       00 00000000000000022
CV00893530300010800021641298320241012000000020241111C3000000091390000000018300000008956000550209******35880102216412983   000000045700000000009200000004478634000001152811     0000004649730010020000000000000000000000000000000000000000000000000000000000000000000000000000000                              BRA0000513090000513090893530300010820241111  120052                       00 00000000000000023
CV00893530300010800021654460020241012000000020241111C3000000085000000000017000000008330000535016******55740102216544600   000000042500000000008500000004165634000001152811     0000005560170010020000000000000000000000000000000000000000000000000000000000000000000000000000000                              BRA0000513090000513090893530300010820241111  120070                       00 00000000000000024
CV00893530300010800021662833320241012000000020241111C3000000300000000000060000000029400000546997******48470102216628333   000000150000000000030000000014700634000001152811     0000002781940010020000000000000000000000000000000000000000000000000000000000000000000000000000000                              BRA0000513090000513090893530300010820241111  120090                       00 00000000000000025
CV00893530300010800021710666920241012000000020241112C3000000054800000000010100000005379000234013******70740000000000000000000000000000000000000000000000000634000001152811     000000D0293E0010020000000000000000000000000000000000000000000000000000000000000000000000000000000                              BRA0000513090000513090893530300010820241112  120132                       00 00000000000000026
CV00893530300010800021712960220241012000000020241112C3000000018500000000003400000001816000550209******87230000000000000000000000000000000000000000000000000634000001152811     0000000323160010020000000000000000000000000000000000000000000000000000000000000000000000000000000                              BRA0000513090000513090893530300010820241112  120134                       00 00000000000000027
CV00893530300010800021713586520241012000000020241112C3000000038500000000007100000003779000516292******87340000000000000000000000000000000000000000000000000634000001152811     0000000559090010020000000000000000000000000000000000000000000000000000000000000000000000000000000                              BRA0000513090000513090893530300010820241112  120136                       00 00000000000000028
CV00893530300010800021615362620241012000000020241112C3000000005000000000000900000000491000550209******03970000000000000000000000000000000000000000000000000634000001152811     0000009012670010020000000000000000000000000000000000000000000000000000000000000000000000000000000                              BRA0000513090000513090893530300010820241112  120001                       00 00000000000000029
CV00893530300010800021618047320241012000000020241112C3000000015730000000002900000001544000550209******41360000000000000000000000000000000000000000000000000634000001152811     0000004636610010020000000000000000000000000000000000000000000000000000000000000000000000000000000                              BRA0000513090000513090893530300010820241112  120002                       00 00000000000000030
CV00893530300010800021621363420241012000000020241112C3000000023000000000004300000002257000550209******04140000000000000000000000000000000000000000000000000634000001152811     0000009924420010020000000000000000000000000000000000000000000000000000000000000000000000000000000                              BRA0000513090000513090893530300010820241112  120011                       00 00000000000000031
CV00893530300010800021621633220241012000000020241112C3000000007050000000001300000000692000546997******66470000000000000000000000000000000000000000000000000634000001152811     0000003479500010020000000000000000000000000000000000000000000000000000000000000000000000000000000                              BRA0000513090000513090893530300010820241112  120013                       00 00000000000000032
CV00893530300010800021623102720241012000000020241112C3000000026000000000004800000002552000550209******02460000000000000000000000000000000000000000000000000634000001152811     0000009265990010020000000000000000000000000000000000000000000000000000000000000000000000000000000                              BRA0000513090000513090893530300010820241112  120014                       00 00000000000000033
CV00893530300010800021624512720241012000000020241112C3000000034000000000006300000003337000545368******21810000000000000000000000000000000000000000000000000634000001152811     0000000076480010020000000000000000000000000000000000000000000000000000000000000000000000000000000                              BRA0000513090000513090893530300010820241112  120016                       00 00000000000000034
CV00893530300010800021724590220241012000000020241112C3000000025980000000004800000002550000550209******19650000000000000000000000000000000000000000000000000634000001152811     0000009938680010020000000000000000000000000000000000000000000000000000000000000000000000000000000                              BRA0000513090000513090893530300010820241112  120153                       00 00000000000000035
CV00893530300010800021627206820241012000000020241112C3000000016500000000003100000001619000546997******76060000000000000000000000000000000000000000000000000634000001152811     0000005825900010020000000000000000000000000000000000000000000000000000000000000000000000000000000                              BRA0000513090000513090893530300010820241112  120020                       00 00000000000000036
CV00893530300010800021629435420241012000000020241112C3000000049000000000009100000004809000546997******00880000000000000000000000000000000000000000000000000634000001152811     0000008809490010020000000000000000000000000000000000000000000000000000000000000000000000000000000                              BRA0000513090000513090893530300010820241112  120026                       00 00000000000000037
CV00893530300010800021629690220241012000000020241112C3000000006290000000001200000000617000555724******43400000000000000000000000000000000000000000000000000634000001152811     0000008940770010020000000000000000000000000000000000000000000000000000000000000000000000000000000                              BRA0000513090000513090893530300010820241112  000004                       00 00000000000000038
CV00893530300010800021634736020241012000000020241112C3000000026000000000004800000002552000520132******49140000000000000000000000000000000000000000000000000634000001152811     0000005909580010020000000000000000000000000000000000000000000000000000000000000000000000000000000                              BRA0000513090000513090893530300010820241112  120036                       00 00000000000000039
CV00893530300010800021637821920241012000000020241112C3000000114300000000021100000011219000550209******81860000000000000000000000000000000000000000000000000634000001152811     0000000720740010020000000000000000000000000000000000000000000000000000000000000000000000000000000                              BRA0000513090000513090893530300010820241112  120041                       00 00000000000000040
CV00893530300010800021640320220241012000000020241112C3000000004500000000000800000000442000550209******03970000000000000000000000000000000000000000000000000634000001152811     0000008549580010020000000000000000000000000000000000000000000000000000000000000000000000000000000                              BRA0000513090000513090893530300010820241112  120047                       00 00000000000000041
CV00893530300010800021641131320241012000000020241112C3000000040170000000007400000003943000545368******02770000000000000000000000000000000000000000000000000634000001152811     0000000510000010020000000000000000000000000000000000000000000000000000000000000000000000000000000                              BRA0000513090000513090893530300010820241112  000010                       00 00000000000000042
CV00893530300010800021641142120241012000000020241112C3000000059550000000011000000005845000223115******30290000000000000000000000000000000000000000000000000634000001152811     0000000029810010020000000000000000000000000000000000000000000000000000000000000000000000000000000                              BRA0000513090000513090893530300010820241112  120050                       00 00000000000000043
CV00893530300010800021644984920241012000000020241112C3000000012900000000002400000001266000530033******90880000000000000000000000000000000000000000000000000634000001152811     0000000689060010020000000000000000000000000000000000000000000000000000000000000000000000000000000                              BRA0000513090000513090893530300010820241112  000011                       00 00000000000000044
CV00893530300010800021652233420241012000000020241112C3000000013490000000002500000001324000544731******33380000000000000000000000000000000000000000000000000634000001152811     0000002201730010020000000000000000000000000000000000000000000000000000000000000000000000000000000                              BRA0000513090000513090893530300010820241112  120064                       00 00000000000000045
CV00893530300010800021652371520241012000000020241112C3000000048460000000009000000004756000550209******95300000000000000000000000000000000000000000000000000634000001152811     0000006992450010020000000000000000000000000000000000000000000000000000000000000000000000000000000                              BRA0000513090000513090893530300010820241112  120063                       00 00000000000000046
CV00893530300010800021652607920241012000000020241112C3000000086990000000016100000008538000548723******53530000000000000000000000000000000000000000000000000634000001152811     0000000591540010020000000000000000000000000000000000000000000000000000000000000000000000000000000                              BRA0000513090000513090893530300010820241112  120066                       00 00000000000000047
CV00893530300010800021659857620241012000000020241112C3000000004000000000000700000000393000550209******99790000000000000000000000000000000000000000000000000634000001152811     0000001681560010020000000000000000000000000000000000000000000000000000000000000000000000000000000                              BRA0000513090000513090893530300010820241112  120083                       00 00000000000000048
CV00893530300010800021665475720241012000000020241112C3000000034000000000006300000003337000531681******16690000000000000000000000000000000000000000000000000634000001152811     0000000763160010020000000000000000000000000000000000000000000000000000000000000000000000000000000                              BRA0000513090000513090893530300010820241112  000014                       00 00000000000000049
CV00893530300010800021685337620241012000000020241112C3000000100980000000018700000009911000515467******03570000000000000000000000000000000000000000000000000634000001152811     0000003307080010020000000000000000000000000000000000000000000000000000000000000000000000000000000                              BRA0000513090000513090893530300010820241112  120115                       00 00000000000000050
CV00893530300010800021685576120241012000000020241112C3000000064970000000012000000006377000550209******96270000000000000000000000000000000000000000000000000634000001152811     0000007219310010020000000000000000000000000000000000000000000000000000000000000000000000000000000                              BRA0000513090000513090893530300010820241112  120116                       00 00000000000000051
CV00893530300010800021708006520241012000000020241112C3000000005380000000001000000000528000546997******22980000000000000000000000000000000000000000000000000634000001152811     0000007183590010020000000000000000000000000000000000000000000000000000000000000000000000000000000                              BRA0000513090000513090893530300010820241112  120129                       00 00000000000000052
CV00893530300010800021633660620241012000000020241014D3000000035000000000003000000003470000550209******78460000000000000000000000000000000000000000000000000634000001152811     0000006472150010040000000000000000000000000000000000000000000000000000000000000000000000000000000                              BRA0000513090000513090893530300010820241014  120034                       00 00000000000000053
CV00893530300010800021634503720241012000000020241014D3000000005990000000000500000000594000230650******91700000000000000000000000000000000000000000000000000634000001152811     000000rRpUY30010040000000000000000000000000000000000000000000000000000000000000000000000000000000                              BRA0000513090000513090893530300010820241014  120038                       00 00000000000000054
CV00893530300010800021638415320241012000000020241014D3000000051920000000004500000005147000230650******56130000000000000000000000000000000000000000000000000634000001152811     000000FQMKoJ0010040000000000000000000000000000000000000000000000000000000000000000000000000000000                              BRA0000513090000513090893530300010820241014  120042                       00 00000000000000055
CV00893530300010800021639182020241012000000020241014D3000000039200000000003400000003886000550209******32210000000000000000000000000000000000000000000000000634000001152811     0000000361870010040000000000000000000000000000000000000000000000000000000000000000000000000000000                              BRA0000513090000513090893530300010820241014  120044                       00 00000000000000056
CV00893530300010800021666252720241012000000020241014D3000000052970000000004600000005251000550209******55800000000000000000000000000000000000000000000000000634000001152811     0000009064700010040000000000000000000000000000000000000000000000000000000000000000000000000000000                              BRA0000513090000513090893530300010820241014  000015                       00 00000000000000057
CV00893530300010800021667498920241012000000020241014D3000000017700000000001500000001755000550209******92040000000000000000000000000000000000000000000000000634000001152811     0000003788410010040000000000000000000000000000000000000000000000000000000000000000000000000000000                              BRA0000513090000513090893530300010820241014  120096                       00 00000000000000058
CV00893530300010800021668823220241012000000020241014D3000000040000000000003500000003965000550209******45990000000000000000000000000000000000000000000000000634000001152811     0000004556960010040000000000000000000000000000000000000000000000000000000000000000000000000000000                              BRA0000513090000513090893530300010820241014  120098                       00 00000000000000059
CV00893530300010800021673672520241012000000020241014D3000000009180000000000800000000910000522626******41360000000000000000000000000000000000000000000000000634000001152811     0000006267060010040000000000000000000000000000000000000000000000000000000000000000000000000000000                              BRA0000513090000513090893530300010820241014  120102                       00 00000000000000060
CV00893530300010800021682617720241012000000020241014D3000000030000000000002600000002974000550272******03230000000000000000000000000000000000000000000000000634000001152811     0000003615940010040000000000000000000000000000000000000000000000000000000000000000000000000000000                              BRA0000513090000513090893530300010820241014  120113                       00 00000000000000061
CV00893530300010800021696893220241012000000020241014D3000000006500000000000600000000644000550209******03970000000000000000000000000000000000000000000000000634000001152811     0000005683520010040000000000000000000000000000000000000000000000000000000000000000000000000000000                              BRA0000513090000513090893530300010820241014  120122                       00 00000000000000062
CV00893530300010800021702461520241012000000020241014D3000000020600000000001800000002042000550209******35880000000000000000000000000000000000000000000000000634000001152811     0000001261940010040000000000000000000000000000000000000000000000000000000000000000000000000000000                              BRA0000513090000513090893530300010820241014  000017                       00 00000000000000063
CV00893530300010800021712541320241012000000020241014D3000000010000000000000900000000991000230650******64530000000000000000000000000000000000000000000000000634000001152811     000000XemBws0010040000000000000000000000000000000000000000000000000000000000000000000000000000000                              BRA0000513090000513090893530300010820241014  120133                       00 00000000000000064
CV00893530300010800021714923220241012000000020241014D3000000018000000000001600000001784000222763******30380000000000000000000000000000000000000000000000000634000001152811     0000006491850010040000000000000000000000000000000000000000000000000000000000000000000000000000000                              BRA0000513090000513090893530300010820241014  120138                       00 00000000000000065
CV00893530300010800021618846320241012000000020241014D3000000200000000000017400000019826603689*********93190000000000000000000000000000000000000000000000000634000001152811     0000001409080010040000000000000000000000000000000000000000000000000000000000000000000000000000000                              BRA0000513090000513090893530300010820241014  120009                       00 00000000000000066
CV00893530300010800021619391620241012000000020241014D3000000032680000000002800000003240000544353******28350000000000000000000000000000000000000000000000000634000001152811     0000006198230010040000000000000000000000000000000000000000000000000000000000000000000000000000000                              BRA0000513090000513090893530300010820241014  120010                       00 00000000000000067
CV00893530300010800021721761020241012000000020241014D3000000002500000000000200000000248000223115******80260000000000000000000000000000000000000000000000000634000001152811     0000007492000010040000000000000000000000000000000000000000000000000000000000000000000000000000000                              BRA0000513090000513090893530300010820241014  120145                       00 00000000000000068
CV00893530300010800021722915620241012000000020241014D3000000016000000000001400000001586000515511******02740000000000000000000000000000000000000000000000000634000001152811     0000000925740010040000000000000000000000000000000000000000000000000000000000000000000000000000000                              BRA0000513090000513090893530300010820241014  120149                       00 00000000000000069
CV00893530300010800021626792220241012000000020241014D3000000143000000000012400000014176000550209******40970000000000000000000000000000000000000000000000000634000001152811     0000000054750010040000000000000000000000000000000000000000000000000000000000000000000000000000000                              BRA0000513090000513090893530300010820241014  120019                       00 00000000000000070
CV00893530300010800021627941520241012000000020241014D3000000111400000000009700000011043000550209******26100000000000000000000000000000000000000000000000000634000001152811     0000007256360010040000000000000000000000000000000000000000000000000000000000000000000000000000000                              BRA0000513090000513090893530300010820241014  120022                       00 00000000000000071
CV00893530300010800021626395720241012000000020241014D3000000128840000000012800000012756000650489******21090000000000000000000000000000000000000000000000000634000001152811     0000001783940070060000000000000000000000000000000000000000000000000000000000000000000000000000000                              BRA0000513090000513090893530300010820241014  000003                       00 00000000000000072
CV00893530300010800021635350120241012000000020241014D3000000020370000000002000000002017000650495******51090000000000000000000000000000000000000000000000000634000001152811     0000001792460070060000000000000000000000000000000000000000000000000000000000000000000000000000000                              BRA0000513090000513090893530300010820241014  000008                       00 00000000000000073
CV00893530300010800021640153120241012000000020241014D3000000028000000000002800000002772000650570******60700000000000000000000000000000000000000000000000000634000001152811     0000008545110070060000000000000000000000000000000000000000000000000000000000000000000000000000000                              BRA0000513090000513090893530300010820241014  120046                       00 00000000000000074
CV00893530300010800021631737320241012000000020241112C3000000025970000000005600000002541000650527******12000000000000000000000000000000000000000000000000000634000001152811     0000006202910070050000000000000000000000000000000000000000000000000000000000000000000000000000000                              BRA0000513090000513090893530300010820241112  000006                       00 00000000000000075
CV00893530300010800021727541720241012000000020241112C3000000019000000000003500000001865000546997******66470000000000000000000000000000000000000000000000000634000001152811     0000003695480010020000000000000000000000000000000000000000000000000000000000000000000000000000000                              BRA0000513090000513090893530300010820241112  120156                       00 00000000000000076
CV00893530300010800021725103620241012000000020241014D3000000044700000000003900000004431000524830******51750000000000000000000000000000000000000000000000000634000001152811     0000004824990010040000000000000000000000000000000000000000000000000000000000000000000000000000000                              BRA0000513090000513090893530300010820241014  120155                       00 00000000000000077
CV00893530300010800021728397520241012000000020241014D3000000057000000000005000000005650000520954******40010000000000000000000000000000000000000000000000000634000001152811     0000006023690010040000000000000000000000000000000000000000000000000000000000000000000000000000000                              BRA0000513090000513090893530300010820241014  120159                       00 00000000000000078
CV00893530300010800021728248820241012000000020241112C3000000036830000000006800000003615000417400******87190000000000000000000000000000000000000000000000000634000001152811     0000002671460020010000000000000000000000000000000000000000000000000000000000000000000000000000000                              BRA0000513090000513090893530300010820241112  120157                       00 00000000000000079
CV00893530300010800021647752120241012000000020241212C3000000053160000000010600000005210000485464******34200202216477521   000000026580000000005300000002605634000001152811     0000001352110020010000000000000000000000000000000000000000000000000000000000000000000000000000000                              BRA0000513090000513090893530300010820241212  000012                       00 00000000000000080
CV00893530300010800021653490020241012000000020241212C3000000270000000000054000000026460000464295******92590202216534900   000000135000000000027000000013230634000001152811     0000000864870020010000000000000000000000000000000000000000000000000000000000000000000000000000000                              BRA0000513090000513090893530300010820241212  120069                       00 00000000000000081
CV00893530300010800021660803820241012000000020241212C3000000091540000000018300000008971000485464******76380202216608038   000000045770000000009100000004486634000001152811     0000004805700020010000000000000000000000000000000000000000000000000000000000000000000000000000000                              BRA0000513090000513090893530300010820241212  120085                       00 00000000000000082
CV00893530300010800021661271920241012000000020241112C3000000013200000000002400000001296000427167******50460000000000000000000000000000000000000000000000000634000001152811     0000000766810020010000000000000000000000000000000000000000000000000000000000000000000000000000000                              BRA0000513090000513090893530300010820241112  120086                       00 00000000000000083
CV00893530300010800021665963820241012000000020241112C3000000036430000000006700000003576000489202******61340000000000000000000000000000000000000000000000000634000001152811     0000004421130020010000000000000000000000000000000000000000000000000000000000000000000000000000000                              BRA0000513090000513090893530300010820241112  120095                       00 00000000000000084
CV00893530300010800021668125920241012000000020241112C3000000003500000000000600000000344000485464******39070000000000000000000000000000000000000000000000000634000001152811     0000007186960020010000000000000000000000000000000000000000000000000000000000000000000000000000000                              BRA0000513090000513090893530300010820241112  120097                       00 00000000000000085
CV00893530300010800021668994320241012000000020241112C3000000021330000000003900000002094000433887******03940000000000000000000000000000000000000000000000000634000001152811     000000OS70XL0020010000000000000000000000000000000000000000000000000000000000000000000000000000000                              BRA0000513090000513090893530300010820241112  120099                       00 00000000000000086
CV00893530300010800021670668420241012000000020241112C3000000015700000000002900000001541000417400******17070000000000000000000000000000000000000000000000000634000001152811     0000002788800020010000000000000000000000000000000000000000000000000000000000000000000000000000000                              BRA0000513090000513090893530300010820241112  120100                       00 00000000000000087
CV00893530300010800021676944720241012000000020241112C3000000007190000000001300000000706000485464******61950000000000000000000000000000000000000000000000000634000001152811     0000009378510020010000000000000000000000000000000000000000000000000000000000000000000000000000000                              BRA0000513090000513090893530300010820241112  120105                       00 00000000000000088
CV00893530300010800021690409020241012000000020241112C3000000033480000000006200000003286000485464******17180000000000000000000000000000000000000000000000000634000001152811     0000003127950020010000000000000000000000000000000000000000000000000000000000000000000000000000000                              BRA0000513090000513090893530300010820241112  120117                       00 00000000000000089
CV00893530300010800021701250520241012000000020241112C3000000038540000000007100000003783000485464******85900000000000000000000000000000000000000000000000000634000001152811     0000005638680020010000000000000000000000000000000000000000000000000000000000000000000000000000000                              BRA0000513090000513090893530300010820241112  000016                       00 00000000000000090
CV00893530300010800021714754320241012000000020241112C3000000033580000000006200000003296000427167******50460000000000000000000000000000000000000000000000000634000001152811     0000000960200020010000000000000000000000000000000000000000000000000000000000000000000000000000000                              BRA0000513090000513090893530300010820241112  120137                       00 00000000000000091
CV00893530300010800021717800220241012000000020241112C3000000001490000000000300000000146000423154******90930000000000000000000000000000000000000000000000000634000001152811     000000UNUYY20020010000000000000000000000000000000000000000000000000000000000000000000000000000000                              BRA0000513090000513090893530300010820241112  000018                       00 00000000000000092
CV00893530300010800021618329020241012000000020241112C3000000018990000000003500000001864000485464******60220000000000000000000000000000000000000000000000000634000001152811     0000003852560020010000000000000000000000000000000000000000000000000000000000000000000000000000000                              BRA0000513090000513090893530300010820241112  120006                       00 00000000000000093
CV00893530300010800021630461220241012000000020241112C3000000030290000000005600000002973000417400******17070000000000000000000000000000000000000000000000000634000001152811     0000003016750020010000000000000000000000000000000000000000000000000000000000000000000000000000000                              BRA0000513090000513090893530300010820241112  120030                       00 00000000000000094
CV00893530300010800021634164120241012000000020241112C3000000019490000000003600000001913000417400******33830000000000000000000000000000000000000000000000000634000001152811     0000003555780020010000000000000000000000000000000000000000000000000000000000000000000000000000000                              BRA0000513090000513090893530300010820241112  000007                       00 00000000000000095
CV00893530300010800021640544220241012000000020241112C3000000058900000000010900000005781000498442******05390000000000000000000000000000000000000000000000000634000001152811     0000009512340020010000000000000000000000000000000000000000000000000000000000000000000000000000000                              BRA0000513090000513090893530300010820241112  000009                       00 00000000000000096
CV00893530300010800021643206220241012000000020241112C3000000049290000000009100000004838000498407******53030000000000000000000000000000000000000000000000000634000001152811     0000000164510020010000000000000000000000000000000000000000000000000000000000000000000000000000000                              BRA0000513090000513090893530300010820241112  120053                       00 00000000000000097
CV00893530300010800021653279120241012000000020241112C3000000028190000000005200000002767000406655******85550000000000000000000000000000000000000000000000000634000001152811     0000006614850020010000000000000000000000000000000000000000000000000000000000000000000000000000000                              BRA0000513090000513090893530300010820241112  120068                       00 00000000000000098
CV00893530300010800021656366520241012000000020241112C3000000274000000000050700000026893000485464******70570000000000000000000000000000000000000000000000000634000001152811     0000003432330020010000000000000000000000000000000000000000000000000000000000000000000000000000000                              BRA0000513090000513090893530300010820241112  120072                       00 00000000000000099
CV00893530300010800021660212420241012000000020241112C3000000082500000000015300000008097000485464******09490000000000000000000000000000000000000000000000000634000001152811     0000004677020020010000000000000000000000000000000000000000000000000000000000000000000000000000000                              BRA0000513090000513090893530300010820241112  120084                       00 00000000000000100
CV00893530300010800021647752120241012000000020241111C3000000053160000000010600000005210000485464******34200102216477521   000000026580000000005300000002605634000001152811     0000001352110020010000000000000000000000000000000000000000000000000000000000000000000000000000000                              BRA0000513090000513090893530300010820241111  000012                       00 00000000000000101
CV00893530300010800021653490020241012000000020241111C3000000270000000000054000000026460000464295******92590102216534900   000000135000000000027000000013230634000001152811     0000000864870020010000000000000000000000000000000000000000000000000000000000000000000000000000000                              BRA0000513090000513090893530300010820241111  120069                       00 00000000000000102
CV00893530300010800021635350120241012000000120241014D3000000020370000000002000000002017000650495******51090000000000000000000000000000000000000000000000000634000001152811     0000001792460070060000000000000000000000000000000000000000000000000000000000000000000000000000000                              BRA0000513090000513090893530300010820241014  000008                       00 00000000000000103
CV00893530300010800021640153120241012000000120241014D3000000028000000000002800000002772000650570******60700000000000000000000000000000000000000000000000000634000001152811     0000008545110070060000000000000000000000000000000000000000000000000000000000000000000000000000000                              BRA0000513090000513090893530300010820241014  120046                       00 00000000000000104
CV00893530300010800021626395720241012000000120241014D3000000128840000000012800000012756000650489******21090000000000000000000000000000000000000000000000000634000001152811     0000001783940070060000000000000000000000000000000000000000000000000000000000000000000000000000000                              BRA0000513090000513090893530300010820241014  000003                       00 00000000000000105
CV00893530300010800021529140720241011000000120241014D3000000010180000000001000000001008000650032******53370000000000000000000000000000000000000000000000000634000001152811     0000004796640070060000000000000000000000000000000000000000000000000000000000000000000000000000000                              BRA0000513090000513090893530300010820241014  500014                       00 00000000000000106
CV00893530300010800021647207820241012000000120241014D3000000059860000000005200000005934000439267******70100000000000000000000000000000000000000000000000000634000001152811     0000003190480020030000000000000000000000000000000000000000000000000000000000000000000000000000000                              BRA0000513090000513090893530300010820241014  120054                       00 00000000000000107
CV00893530300010800021589245320241011000000120241014D3000000017000000000001700000001683000650584******52060000000000000000000000000000000000000000000000000634000001152811     0000001700180070060000000000000000000000000000000000000000000000000000000000000000000000000000000                              BRA0000513090000513090893530300010820241014  110155                       00 00000000000000108
CV00893530300010800021581142920241011000000120241014D3000000058500000000005800000005792000506721******56330000000000000000000000000000000000000000000000000634000001152811     0000008869000070060000000000000000000000000000000000000000000000000000000000000000000000000000000                              BRA0000513090000513090893530300010820241014  110129                       00 00000000000000109
CV00893530300010800021676971620241012000000120241014D3000000010670000000000900000001058000485464******11750000000000000000000000000000000000000000000000000634000001152811     0000001479440020030000000000000000000000000000000000000000000000000000000000000000000000000000000                              BRA0000513090000513090893530300010820241014  120106                       00 00000000000000110
CV00893530300010800021691807820241012000000120241014D3000000007690000000000700000000762000485464******93830000000000000000000000000000000000000000000000000634000001152811     0000003532210020030000000000000000000000000000000000000000000000000000000000000000000000000000000                              BRA0000513090000513090893530300010820241014  120120                       00 00000000000000111
CV00893530300010800021716191520241012000000120241014D3000000044000000000003800000004362000498453******36450000000000000000000000000000000000000000000000000634000001152811     0000001629970020030000000000000000000000000000000000000000000000000000000000000000000000000000000                              BRA0000513090000513090893530300010820241014  120140                       00 00000000000000112
CV00893530300010800021618772120241012000000120241014D3000000015170000000001300000001504000410715******81040000000000000000000000000000000000000000000000000634000001152811     0000001780710020030000000000000000000000000000000000000000000000000000000000000000000000000000000                              BRA0000513090000513090893530300010820241014  120008                       00 00000000000000113
CV00893530300010800021720258820241012000000120241014D3000000044790000000003900000004440000439267******33410000000000000000000000000000000000000000000000000634000001152811     0000003246130020030000000000000000000000000000000000000000000000000000000000000000000000000000000                              BRA0000513090000513090893530300010820241014  120144                       00 00000000000000114
CV00893530300010800021724253620241012000000120241014D3000000045390000000003900000004500000485464******62090000000000000000000000000000000000000000000000000634000001152811     0000001664090020030000000000000000000000000000000000000000000000000000000000000000000000000000000                              BRA0000513090000513090893530300010820241014  120151                       00 00000000000000115
CV00893530300010800021719783520241012000000120241014D3000000006990000000000600000000693000421924******45140000000000000000000000000000000000000000000000000634000001152811     0000002644810020030000000000000000000000000000000000000000000000000000000000000000000000000000000                              BRA0000513090000513090893530300010820241014  000019                       00 00000000000000116
CV00893530300010800021719842220241012000000120241014D3000000007400000000000600000000734000421924******45140000000000000000000000000000000000000000000000000634000001152811     0000003645210020030000000000000000000000000000000000000000000000000000000000000000000000000000000                              BRA0000513090000513090893530300010820241014  000020                       00 00000000000000117
CV00893530300010800021535029420241011000000120241014D3000000089390000000007800000008861000452204******92080000000000000000000000000000000000000000000000000634000001152811     0000001649600020030000000000000000000000000000000000000000000000000000000000000000000000000000000                              BRA0000513090000513090893530300010820241014  110044                       00 00000000000000118
CV00893530300010800021522989220241011000000120241014D3000000054670000000004800000005419000477393******42000000000000000000000000000000000000000000000000000634000001152811     0000001639450020030000000000000000000000000000000000000000000000000000000000000000000000000000000                              BRA0000513090000513090893530300010820241014  500010                       00 00000000000000119
CV00893530300010800021518657420241011000000120241014D3000000011500000000001000000001140000441781******62520000000000000000000000000000000000000000000000000634000001152811     0000006630080020030000000000000000000000000000000000000000000000000000000000000000000000000000000                              BRA0000513090000513090893530300010820241014  110010                       00 00000000000000120
CV00893530300010800021526688020241011000000120241014D3000000040660000000003500000004031000410715******81040000000000000000000000000000000000000000000000000634000001152811     0000001649290020030000000000000000000000000000000000000000000000000000000000000000000000000000000                              BRA0000513090000513090893530300010820241014  110024                       00 00000000000000121
CV00893530300010800021535951420241011000000120241014D3000000007990000000000700000000792000439267******01370000000000000000000000000000000000000000000000000634000001152811     0000003224800020030000000000000000000000000000000000000000000000000000000000000000000000000000000                              BRA0000513090000513090893530300010820241014  500021                       00 00000000000000122
CV00893530300010800021536628220241011000000120241014D3000000047040000000004100000004663000485464******91840000000000000000000000000000000000000000000000000634000001152811     0000001398470020030000000000000000000000000000000000000000000000000000000000000000000000000000000                              BRA0000513090000513090893530300010820241014  500022                       00 00000000000000123
CV00893530300010800021543464720241011000000120241014D3000000334000000000029100000033109000439267******49260000000000000000000000000000000000000000000000000634000001152811     0000003294790020030000000000000000000000000000000000000000000000000000000000000000000000000000000                              BRA0000513090000513090893530300010820241014  110057                       00 00000000000000124
CV00893530300010800021543857520241011000000120241014D3000000018500000000001600000001834000410393******64520000000000000000000000000000000000000000000000000634000001152811     0000001657500020030000000000000000000000000000000000000000000000000000000000000000000000000000000                              BRA0000513090000513090893530300010820241014  110058                       00 00000000000000125
CV00893530300010800021559661020241011000000120241014D3000000002200000000000200000000218000485464******54660000000000000000000000000000000000000000000000000634000001152811     0000003538920020030000000000000000000000000000000000000000000000000000000000000000000000000000000                              BRA0000513090000513090893530300010820241014  110084                       00 00000000000000126
CV00893530300010800021650244520241012000000120241014D3000000165690000000014400000016425000439267******09030000000000000000000000000000000000000000000000000634000001152811     0000005657940020030000000000000000000000000000000000000000000000000000000000000000000000000000000                              BRA0000513090000513090893530300010820241014  120056                       00 00000000000000127
CV00893530300010800021662004920241012000000120241014D3000000023890000000002100000002368000417402******63940000000000000000000000000000000000000000000000000634000001152811     0000002P93F40020030000000000000000000000000000000000000000000000000000000000000000000000000000000                              BRA0000513090000513090893530300010820241014  120089                       00 00000000000000128
CV00893530300010800021574259620241011000000120241014D3000000166280000000014500000016483000498423******44470000000000000000000000000000000000000000000000000634000001152811     0000001613510020030000000000000000000000000000000000000000000000000000000000000000000000000000000                              BRA0000513090000513090893530300010820241014  110106                       00 00000000000000129
CV00893530300010800021626792220241012000000120241014D3000000143000000000012400000014176000550209******40970000000000000000000000000000000000000000000000000634000001152811     0000000054750010040000000000000000000000000000000000000000000000000000000000000000000000000000000                              BRA0000513090000513090893530300010820241014  120019                       00 00000000000000130
CV00893530300010800021627941520241012000000120241014D3000000111400000000009700000011043000550209******26100000000000000000000000000000000000000000000000000634000001152811     0000007256360010040000000000000000000000000000000000000000000000000000000000000000000000000000000                              BRA0000513090000513090893530300010820241014  120022                       00 00000000000000131
CV00893530300010800021633660620241012000000120241014D3000000035000000000003000000003470000550209******78460000000000000000000000000000000000000000000000000634000001152811     0000006472150010040000000000000000000000000000000000000000000000000000000000000000000000000000000                              BRA0000513090000513090893530300010820241014  120034                       00 00000000000000132
CV00893530300010800021639182020241012000000120241014D3000000039200000000003400000003886000550209******32210000000000000000000000000000000000000000000000000634000001152811     0000000361870010040000000000000000000000000000000000000000000000000000000000000000000000000000000                              BRA0000513090000513090893530300010820241014  120044                       00 00000000000000133
CV00893530300010800021634503720241012000000120241014D3000000005990000000000500000000594000230650******91700000000000000000000000000000000000000000000000000634000001152811     000000rRpUY30010040000000000000000000000000000000000000000000000000000000000000000000000000000000                              BRA0000513090000513090893530300010820241014  120038                       00 00000000000000134
CV00893530300010800021638415320241012000000120241014D3000000051920000000004500000005147000230650******56130000000000000000000000000000000000000000000000000634000001152811     000000FQMKoJ0010040000000000000000000000000000000000000000000000000000000000000000000000000000000                              BRA0000513090000513090893530300010820241014  120042                       00 00000000000000135
CV00893530300010800021666252720241012000000120241014D3000000052970000000004600000005251000550209******55800000000000000000000000000000000000000000000000000634000001152811     0000009064700010040000000000000000000000000000000000000000000000000000000000000000000000000000000                              BRA0000513090000513090893530300010820241014  000015                       00 00000000000000136
CV00893530300010800021667498920241012000000120241014D3000000017700000000001500000001755000550209******92040000000000000000000000000000000000000000000000000634000001152811     0000003788410010040000000000000000000000000000000000000000000000000000000000000000000000000000000                              BRA0000513090000513090893530300010820241014  120096                       00 00000000000000137
CV00893530300010800021668823220241012000000120241014D3000000040000000000003500000003965000550209******45990000000000000000000000000000000000000000000000000634000001152811     0000004556960010040000000000000000000000000000000000000000000000000000000000000000000000000000000                              BRA0000513090000513090893530300010820241014  120098                       00 00000000000000138
CV00893530300010800021673672520241012000000120241014D3000000009180000000000800000000910000522626******41360000000000000000000000000000000000000000000000000634000001152811     0000006267060010040000000000000000000000000000000000000000000000000000000000000000000000000000000                              BRA0000513090000513090893530300010820241014  120102                       00 00000000000000139
CV00893530300010800021682617720241012000000120241014D3000000030000000000002600000002974000550272******03230000000000000000000000000000000000000000000000000634000001152811     0000003615940010040000000000000000000000000000000000000000000000000000000000000000000000000000000                              BRA0000513090000513090893530300010820241014  120113                       00 00000000000000140
CV00893530300010800021696893220241012000000120241014D3000000006500000000000600000000644000550209******03970000000000000000000000000000000000000000000000000634000001152811     0000005683520010040000000000000000000000000000000000000000000000000000000000000000000000000000000                              BRA0000513090000513090893530300010820241014  120122                       00 00000000000000141
CV00893530300010800021702461520241012000000120241014D3000000020600000000001800000002042000550209******35880000000000000000000000000000000000000000000000000634000001152811     0000001261940010040000000000000000000000000000000000000000000000000000000000000000000000000000000                              BRA0000513090000513090893530300010820241014  000017                       00 00000000000000142
CV00893530300010800021712541320241012000000120241014D3000000010000000000000900000000991000230650******64530000000000000000000000000000000000000000000000000634000001152811     000000XemBws0010040000000000000000000000000000000000000000000000000000000000000000000000000000000                              BRA0000513090000513090893530300010820241014  120133                       00 00000000000000143
CV00893530300010800021714923220241012000000120241014D3000000018000000000001600000001784000222763******30380000000000000000000000000000000000000000000000000634000001152811     0000006491850010040000000000000000000000000000000000000000000000000000000000000000000000000000000                              BRA0000513090000513090893530300010820241014  120138                       00 00000000000000144
CV00893530300010800021618846320241012000000120241014D3000000200000000000017400000019826603689*********93190000000000000000000000000000000000000000000000000634000001152811     0000001409080010040000000000000000000000000000000000000000000000000000000000000000000000000000000                              BRA0000513090000513090893530300010820241014  120009                       00 00000000000000145
CV00893530300010800021619391620241012000000120241014D3000000032680000000002800000003240000544353******28350000000000000000000000000000000000000000000000000634000001152811     0000006198230010040000000000000000000000000000000000000000000000000000000000000000000000000000000                              BRA0000513090000513090893530300010820241014  120010                       00 00000000000000146
CV00893530300010800021721761020241012000000120241014D3000000002500000000000200000000248000223115******80260000000000000000000000000000000000000000000000000634000001152811     0000007492000010040000000000000000000000000000000000000000000000000000000000000000000000000000000                              BRA0000513090000513090893530300010820241014  120145                       00 00000000000000147
CV00893530300010800021722915620241012000000120241014D3000000016000000000001400000001586000515511******02740000000000000000000000000000000000000000000000000634000001152811     0000000925740010040000000000000000000000000000000000000000000000000000000000000000000000000000000                              BRA0000513090000513090893530300010820241014  120149                       00 00000000000000148
CV00893530300010800021515851620241011000000120241014D3000000036740000000003200000003642000550209******59660000000000000000000000000000000000000000000000000634000001152811     0000004986700010040000000000000000000000000000000000000000000000000000000000000000000000000000000                              BRA0000513090000513090893530300010820241014  110005                       00 00000000000000149
CV00893530300010800021516637020241011000000120241014D3000000004000000000000300000000397000520954******40010000000000000000000000000000000000000000000000000634000001152811     0000002130010010040000000000000000000000000000000000000000000000000000000000000000000000000000000                              BRA0000513090000513090893530300010820241014  110007                       00 00000000000000150
CV00893530300010800021520012120241011000000120241014D3000000021880000000001900000002169000550209******30410000000000000000000000000000000000000000000000000634000001152811     0000001117320010040000000000000000000000000000000000000000000000000000000000000000000000000000000                              BRA0000513090000513090893530300010820241014  500008                       00 00000000000000151
CV00893530300010800021523252620241011000000120241014D3000000008750000000000800000000867000550209******42910000000000000000000000000000000000000000000000000634000001152811     0000009126240010040000000000000000000000000000000000000000000000000000000000000000000000000000000                              BRA0000513090000513090893530300010820241014  500011                       00 00000000000000152
CV00893530300010800021525580720241011000000120241014D3000000003200000000000300000000317000230650******36090000000000000000000000000000000000000000000000000634000001152811     000000OAH0oD0010040000000000000000000000000000000000000000000000000000000000000000000000000000000                              BRA0000513090000513090893530300010820241014  110022                       00 00000000000000153
CV00893530300010800021529633920241011000000120241014D3000000007500000000000700000000743000230650******96180000000000000000000000000000000000000000000000000634000001152811     000000QnwDOJ0010040000000000000000000000000000000000000000000000000000000000000000000000000000000                              BRA0000513090000513090893530300010820241014  500015                       00 00000000000000154
CV00893530300010800021530470020241011000000120241014D3000000037890000000003300000003756000230650******64530000000000000000000000000000000000000000000000000634000001152811     000000WCJYSs0010040000000000000000000000000000000000000000000000000000000000000000000000000000000                              BRA0000513090000513090893530300010820241014  500016                       00 00000000000000155
CV00893530300010800021531834320241011000000120241014D3000000028790000000002500000002854000230650******96180000000000000000000000000000000000000000000000000634000001152811     0000003hRmEp0010040000000000000000000000000000000000000000000000000000000000000000000000000000000                              BRA0000513090000513090893530300010820241014  500017                       00 00000000000000156
CV00893530300010800021533720020241011000000120241014D3000000032100000000002800000003182000550209******99790000000000000000000000000000000000000000000000000634000001152811     0000006953590010040000000000000000000000000000000000000000000000000000000000000000000000000000000                              BRA0000513090000513090893530300010820241014  500018                       00 00000000000000157
CV00893530300010800021559746320241011000000120241014D3000000006750000000000600000000669000550209******32890000000000000000000000000000000000000000000000000634000001152811     0000005462900010040000000000000000000000000000000000000000000000000000000000000000000000000000000                              BRA0000513090000513090893530300010820241014  110083                       00 00000000000000158
CV00893530300010800021562006720241011000000120241014D3000000019690000000001700000001952000520635******96330000000000000000000000000000000000000000000000000634000001152811     0000001670290010040000000000000000000000000000000000000000000000000000000000000000000000000000000                              BRA0000513090000513090893530300010820241014  110089                       00 00000000000000159
CV00893530300010800021564706620241011000000120241014D3000000010200000000000900000001011000544353******28350000000000000000000000000000000000000000000000000634000001152811     0000005370340010040000000000000000000000000000000000000000000000000000000000000000000000000000000                              BRA0000513090000513090893530300010820241014  110090                       00 00000000000000160
CV00893530300010800021575393520241011000000120241014D3000000003750000000000300000000372000550209******30410000000000000000000000000000000000000000000000000634000001152811     0000000685230010040000000000000000000000000000000000000000000000000000000000000000000000000000000                              BRA0000513090000513090893530300010820241014  110110                       00 00000000000000161
CV00893530300010800021576374020241011000000120241014D3000000006790000000000600000000673000521425******24310000000000000000000000000000000000000000000000000634000001152811     0000000757120010040000000000000000000000000000000000000000000000000000000000000000000000000000000                              BRA0000513090000513090893530300010820241014  110113                       00 00000000000000162
CV00893530300010800021576489120241011000000120241014D3000000034000000000003000000003370000550209******75700000000000000000000000000000000000000000000000000634000001152811     0000001823810010040000000000000000000000000000000000000000000000000000000000000000000000000000000                              BRA0000513090000513090893530300010820241014  110114                       00 00000000000000163
CV00893530300010800021589521620241011000000120241014D3000000003590000000000300000000356000550209******33010000000000000000000000000000000000000000000000000634000001152811     0000005538650010040000000000000000000000000000000000000000000000000000000000000000000000000000000                              BRA0000513090000513090893530300010820241014  110156                       00 00000000000000164
CV00893530300010800021589610420241011000000120241014D3000000006000000000000500000000595000520954******40010000000000000000000000000000000000000000000000000634000001152811     0000002063510010040000000000000000000000000000000000000000000000000000000000000000000000000000000                              BRA0000513090000513090893530300010820241014  110157                       00 00000000000000165
CV00893530300010800021592155320241011000000120241014D3000000080280000000007000000007958000550209******42420000000000000000000000000000000000000000000000000634000001152811     0000004034450010040000000000000000000000000000000000000000000000000000000000000000000000000000000                              BRA0000513090000513090893530300010820241014  500037                       00 00000000000000166
CV00893530300010800021594863920241011000000120241014D3000000048000000000004200000004758000550209******20990000000000000000000000000000000000000000000000000634000001152811     0000003632470010040000000000000000000000000000000000000000000000000000000000000000000000000000000                              BRA0000513090000513090893530300010820241014  110169                       00 00000000000000167
CV00893530300010800021577218120241011000000120241014D3000000220000000000019100000021809000550209******30410000000000000000000000000000000000000000000000000634000001152811     0000000506800010040000000000000000000000000000000000000000000000000000000000000000000000000000000                              BRA0000513090000513090893530300010820241014  110115                       00 00000000000000168
CV00893530300010800021586454020241011000000120241014D3000000008680000000000800000000860000550209******97400000000000000000000000000000000000000000000000000634000001152811     0000002247610010040000000000000000000000000000000000000000000000000000000000000000000000000000000                              BRA0000513090000513090893530300010820241014  110147                       00 00000000000000169
CV00893530300010800021725103620241012000000120241014D3000000044700000000003900000004431000524830******51750000000000000000000000000000000000000000000000000634000001152811     0000004824990010040000000000000000000000000000000000000000000000000000000000000000000000000000000                              BRA0000513090000513090893530300010820241014  120155                       00 00000000000000170
CV00893530300010800021728397520241012000000120241014D3000000057000000000005000000005650000520954******40010000000000000000000000000000000000000000000000000634000001152811     0000006023690010040000000000000000000000000000000000000000000000000000000000000000000000000000000                              BRA0000513090000513090893530300010820241014  120159                       00 00000000000000171
CV00893530300010800018869479620240914000000120241015C3000000043830000000008100000004302000407838******92650000000000000000000000000000000000000000000000000634000001152811     0000009948360020010000000000000000000000000000000000000000000000000000000000000000000000000000000                              BRA0000513090000513090893530300010820241015  000009                       00 00000000000000172
CV00893530300010800018871867020240914000000120241015C3000000014950000000002800000001467000485464******19490000000000000000000000000000000000000000000000000634000001152811     0000002116260020010000000000000000000000000000000000000000000000000000000000000000000000000000000                              BRA0000513090000513090893530300010820241015  000010                       00 00000000000000173
CV00893530300010800018875003420240914000000120241015C3000000075000000000013900000007361000485464******86910000000000000000000000000000000000000000000000000634000001152811     0000003151880020010000000000000000000000000000000000000000000000000000000000000000000000000000000                              BRA0000513090000513090893530300010820241015  140035                       00 00000000000000174
CV00893530300010800018875822420240914000000120241015C3000000103470000000019100000010156000498442******41200000000000000000000000000000000000000000000000000634000001152811     0000003400910020010000000000000000000000000000000000000000000000000000000000000000000000000000000                              BRA0000513090000513090893530300010820241015  140036                       00 00000000000000175
CV00893530300010800018884808920240914000000120241015C3000000117570000000021800000011539000409281******09460000000000000000000000000000000000000000000000000634000001152811     0000006202610020010000000000000000000000000000000000000000000000000000000000000000000000000000000                              BRA0000513090000513090893530300010820241015  140056                       00 00000000000000176
CV00893530300010800018884361920240914000000120241015C3000000104300000000019300000010237000485464******31270000000000000000000000000000000000000000000000000634000001152811     0000006714590020010000000000000000000000000000000000000000000000000000000000000000000000000000000                              BRA0000513090000513090893530300010820241015  140054                       00 00000000000000177
CV00893530300010800018886987520240914000000120241015C3000000006090000000001100000000598000410715******81040000000000000000000000000000000000000000000000000634000001152811     0000006349390020010000000000000000000000000000000000000000000000000000000000000000000000000000000                              BRA0000513090000513090893530300010820241015  000018                       00 00000000000000178
CV00893530300010800018888930820240914000000120241015C3000000026680000000004900000002619000497250******71840000000000000000000000000000000000000000000000000634000001152811     0000008520710020010000000000000000000000000000000000000000000000000000000000000000000000000000000                              BRA0000513090000513090893530300010820241015  000020                       00 00000000000000179
CV00893530300010800018893623020240914000000120241015C3000000025000000000004600000002454000410863******27280000000000000000000000000000000000000000000000000634000001152811     0000004359700020010000000000000000000000000000000000000000000000000000000000000000000000000000000                              BRA0000513090000513090893530300010820241015  140068                       00 00000000000000180
CV00893530300010800018912846220240914000000120241015C3000000023080000000004300000002265000485464******61950000000000000000000000000000000000000000000000000634000001152811     0000008547960020010000000000000000000000000000000000000000000000000000000000000000000000000000000                              BRA0000513090000513090893530300010820241015  000029                       00 00000000000000181
CV00893530300010800018917197520240914000000120241015C3000000014980000000002800000001470000485464******45660000000000000000000000000000000000000000000000000634000001152811     0000000172530020010000000000000000000000000000000000000000000000000000000000000000000000000000000                              BRA0000513090000513090893530300010820241015  140085                       00 00000000000000182
CV00893530300010800018932072920240914000000120241015C3000000481900000000089200000047298000476331******41210000000000000000000000000000000000000000000000000634000001152811     0000000488500020010000000000000000000000000000000000000000000000000000000000000000000000000000000                              BRA0000513090000513090893530300010820241015  140106                       00 00000000000000183
CV00893530300010800018937719820240914000000120241015C3000000305000000000056400000029936000466717******62280000000000000000000000000000000000000000000000000634000001152811     0000009182950020010000000000000000000000000000000000000000000000000000000000000000000000000000000                              BRA0000513090000513090893530300010820241015  140109                       00 00000000000000184
CV00893530300010800018849661620240914000000120241015C3000000074280000000013700000007291000485464******88880000000000000000000000000000000000000000000000000634000001152811     0000005351290020010000000000000000000000000000000000000000000000000000000000000000000000000000000                              BRA0000513090000513090893530300010820241015  000002                       00 00000000000000185
CV00893530300010800018860637220240914000000120241015C3000000220000000000040700000021593000485464******29220000000000000000000000000000000000000000000000000634000001152811     0000008399200020010000000000000000000000000000000000000000000000000000000000000000000000000000000                              BRA0000513090000513090893530300010820241015  140022                       00 00000000000000186
CV00893530300010800018866863920240914000000120241015C3000000020970000000003900000002058000485464******39070000000000000000000000000000000000000000000000000634000001152811     0000000375940020010000000000000000000000000000000000000000000000000000000000000000000000000000000                              BRA0000513090000513090893530300010820241015  000006                       00 00000000000000187
CV00893530300010800015697271420240815000000120241015C3000000063000000000012600000006174000400268******86780202156972714   000000031500000000006300000003087634000001152811     0000000776900020010000000000000000000000000000000000000000000000000000000000000000000000000000000                              BRA0000513090000513090893530300010820241015  150015                       00 00000000000000188
CV00893530300010800015697589520240815000000120241015C3000000379000000000075800000037142000485464******98400202156975895   000000189500000000037900000018571634000001152811     0000004016920020010000000000000000000000000000000000000000000000000000000000000000000000000000000                              BRA0000513090000513090893530300010820241015  150016                       00 00000000000000189
CV00893530300010800018876361120240914000000120241015C3000000029690000000005500000002914000516292******34500000000000000000000000000000000000000000000000000634000001152811     0000009116150010020000000000000000000000000000000000000000000000000000000000000000000000000000000                              BRA0000513090000513090893530300010820241015  000012                       00 00000000000000190
CV00893530300010800018877746220240914000000120241015C3000000021080000000003900000002069000516292******34500000000000000000000000000000000000000000000000000634000001152811     0000004197080010020000000000000000000000000000000000000000000000000000000000000000000000000000000                              BRA0000513090000513090893530300010820241015  000013                       00 00000000000000191
CV00893530300010800018880570120240914000000120241015C3000000037000000000006800000003632000550209******60390000000000000000000000000000000000000000000000000634000001152811     0000004202100010020000000000000000000000000000000000000000000000000000000000000000000000000000000                              BRA0000513090000513090893530300010820241015  140045                       00 00000000000000192
CV00893530300010800018881397320240914000000120241015C3000000056730000000010500000005568000535081******18650000000000000000000000000000000000000000000000000634000001152811     000000PJ12NK0010020000000000000000000000000000000000000000000000000000000000000000000000000000000                              BRA0000513090000513090893530300010820241015  140047                       00 00000000000000193
CV00893530300010800018883190820240914000000120241015C3000000035900000000006600000003524000550209******40980000000000000000000000000000000000000000000000000634000001152811     0000000818860010020000000000000000000000000000000000000000000000000000000000000000000000000000000                              BRA0000513090000513090893530300010820241015  140053                       00 00000000000000194
CV00893530300010800018888355720240914000000120241015C3000000015500000000002900000001521000550209******53370000000000000000000000000000000000000000000000000634000001152811     0000002517450010020000000000000000000000000000000000000000000000000000000000000000000000000000000                              BRA0000513090000513090893530300010820241015  140058                       00 00000000000000195
CV00893530300010800018889980220240914000000120241015C3000000081880000000015100000008037000546997******84790000000000000000000000000000000000000000000000000634000001152811     0000006953450010020000000000000000000000000000000000000000000000000000000000000000000000000000000                              BRA0000513090000513090893530300010820241015  000021                       00 00000000000000196
CV00893530300010800018890944320240914000000120241015C3000000034000000000006300000003337000527473******99950000000000000000000000000000000000000000000000000634000001152811     000000D7C24B0010020000000000000000000000000000000000000000000000000000000000000000000000000000000                              BRA0000513090000513090893530300010820241015  140061                       00 00000000000000197
CV00893530300010800018892162820240914000000120241015C3000000019800000000003700000001943000234074******50250000000000000000000000000000000000000000000000000634000001152811     0000000702440010020000000000000000000000000000000000000000000000000000000000000000000000000000000                              BRA0000513090000513090893530300010820241015  140064                       00 00000000000000198
CV00893530300010800018892674520240914000000120241015C3000000012800000000002400000001256000550209******61660000000000000000000000000000000000000000000000000634000001152811     0000008093720010020000000000000000000000000000000000000000000000000000000000000000000000000000000                              BRA0000513090000513090893530300010820241015  000022                       00 00000000000000199
CV00893530300010800018893112620240914000000120241015C3000000100520000000018600000009866000518454******81710000000000000000000000000000000000000000000000000634000001152811     0000006253430010020000000000000000000000000000000000000000000000000000000000000000000000000000000                              BRA0000513090000513090893530300010820241015  000023                       00 00000000000000200
CV00893530300010800018894190220240914000000120241015C3000000011200000000002100000001099000550209******64480000000000000000000000000000000000000000000000000634000001152811     0000004471480010020000000000000000000000000000000000000000000000000000000000000000000000000000000                              BRA0000513090000513090893530300010820241015  140070                       00 00000000000000201
CV00893530300010800018896016220240914000000120241015C3000000039000000000007200000003828000545368******64120000000000000000000000000000000000000000000000000634000001152811     0000000344090010020000000000000000000000000000000000000000000000000000000000000000000000000000000                              BRA0000513090000513090893530300010820241015  140071                       00 00000000000000202
CV00893530300010800018913222620240914000000120241015C3000000115310000000021300000011318000223063******01340000000000000000000000000000000000000000000000000634000001152811     0000002516280010020000000000000000000000000000000000000000000000000000000000000000000000000000000                              BRA0000513090000513090893530300010820241015  000030                       00 00000000000000203
CV00893530300010800018913382520240914000000120241015C3000000073000000000013500000007165000223063******01340000000000000000000000000000000000000000000000000634000001152811     0000009083800010020000000000000000000000000000000000000000000000000000000000000000000000000000000                              BRA0000513090000513090893530300010820241015  000031                       00 00000000000000204
CV00893530300010800018913808220240914000000120241015C3000000028800000000005300000002827000530034******04070000000000000000000000000000000000000000000000000634000001152811     0000000800950010020000000000000000000000000000000000000000000000000000000000000000000000000000000                              BRA0000513090000513090893530300010820241015  000032                       00 00000000000000205
CV00893530300010800018916327020240914000000120241015C3000000042000000000007800000004122000230650******47480000000000000000000000000000000000000000000000000634000001152811     000000R038200010020000000000000000000000000000000000000000000000000000000000000000000000000000000                              BRA0000513090000513090893530300010820241015  140084                       00 00000000000000206
CV00893530300010800018917805020240914000000120241015C3000000093000000000017200000009128000515467******68840000000000000000000000000000000000000000000000000634000001152811     0000002296620010020000000000000000000000000000000000000000000000000000000000000000000000000000000                              BRA0000513090000513090893530300010820241015  140086                       00 00000000000000207
CV00893530300010800018918277020240914000000120241015C3000000020980000000003900000002059000234074******60250000000000000000000000000000000000000000000000000634000001152811     0000000380340010020000000000000000000000000000000000000000000000000000000000000000000000000000000                              BRA0000513090000513090893530300010820241015  000034                       00 00000000000000208
CV00893530300010800018931310920240914000000120241015C3000000013350000000002500000001310000550209******04470000000000000000000000000000000000000000000000000634000001152811     0000009114500010020000000000000000000000000000000000000000000000000000000000000000000000000000000                              BRA0000513090000513090893530300010820241015  140105                       00 00000000000000209
CV00893530300010800018926250520240914000000120241015C3000000005000000000000900000000491000550209******42420000000000000000000000000000000000000000000000000634000001152811     0000005468150010020000000000000000000000000000000000000000000000000000000000000000000000000000000                              BRA0000513090000513090893530300010820241015  140094                       00 00000000000000210
CV00893530300010800018921439720240914000000120241015C3000000035240000000006500000003459000546997******57140000000000000000000000000000000000000000000000000634000001152811     0000000486570010020000000000000000000000000000000000000000000000000000000000000000000000000000000                              BRA0000513090000513090893530300010820241015  140088                       00 00000000000000211
CV00893530300010800018926246820240914000000120241015C3000000012630000000002300000001240000526326******19270000000000000000000000000000000000000000000000000634000001152811     0000003979770010020000000000000000000000000000000000000000000000000000000000000000000000000000000                              BRA0000513090000513090893530300010820241015  000036                       00 00000000000000212
CV00893530300010800018867254720240914000000120241015C3000000131160000000024300000012873000545368******89790000000000000000000000000000000000000000000000000634000001152811     0000000354230010020000000000000000000000000000000000000000000000000000000000000000000000000000000                              BRA0000513090000513090893530300010820241015  000007                       00 00000000000000213
CV00893530300010800018936189320240914000000120241015C3000000037990000000007000000003729000550209******93310000000000000000000000000000000000000000000000000634000001152811     0000005879170010020000000000000000000000000000000000000000000000000000000000000000000000000000000                              BRA0000513090000513090893530300010820241015  000037                       00 00000000000000214
CV00893530300010800018853759620240914000000120241015C3000000012390000000002300000001216000546997******93380000000000000000000000000000000000000000000000000634000001152811     0000004780950010020000000000000000000000000000000000000000000000000000000000000000000000000000000                              BRA0000513090000513090893530300010820241015  000003                       00 00000000000000215
CV00893530300010800018852200520240914000000120241015C3000000022000000000004100000002159000550209******93420000000000000000000000000000000000000000000000000634000001152811     0000008841530010020000000000000000000000000000000000000000000000000000000000000000000000000000000                              BRA0000513090000513090893530300010820241015  140010                       00 00000000000000216
CV00893530300010800018855365720240914000000120241015C3000000088000000000016300000008637000550209******67060000000000000000000000000000000000000000000000000634000001152811     0000004065470010020000000000000000000000000000000000000000000000000000000000000000000000000000000                              BRA0000513090000513090893530300010820241015  000004                       00 00000000000000217
CV00893530300010800018855995120240914000000120241015C3000000012300000000002300000001207000230650******27100000000000000000000000000000000000000000000000000634000001152811     000000R024050010020000000000000000000000000000000000000000000000000000000000000000000000000000000                              BRA0000513090000513090893530300010820241015  140014                       00 00000000000000218
CV00893530300010800018859603620240914000000120241015C3000000103000000000019100000010109000516292******72220000000000000000000000000000000000000000000000000634000001152811     0000000533210010020000000000000000000000000000000000000000000000000000000000000000000000000000000                              BRA0000513090000513090893530300010820241015  140017                       00 00000000000000219
CV00893530300010800018860540120240914000000120241015C3000000037630000000007000000003693000550209******66760000000000000000000000000000000000000000000000000634000001152811     0000000487830010020000000000000000000000000000000000000000000000000000000000000000000000000000000                              BRA0000513090000513090893530300010820241015  140021                       00 00000000000000220
CV00893530300010800018863837920240914000000120241015C3000000050750000000009400000004981000546997******44540000000000000000000000000000000000000000000000000634000001152811     0000002810150010020000000000000000000000000000000000000000000000000000000000000000000000000000000                              BRA0000513090000513090893530300010820241015  140025                       00 00000000000000221
CV00893530300010800018866398420240914000000120241015C3000000033000000000006100000003239000550209******61010000000000000000000000000000000000000000000000000634000001152811     0000006236960010020000000000000000000000000000000000000000000000000000000000000000000000000000000                              BRA0000513090000513090893530300010820241015  140026                       00 00000000000000222
CV00893530300010800018967217420240915000000120241015C3000000054000000000010800000005292000535016******66860102189672174   000000027000000000005400000002646634000001152811     0000007020920010020000000000000000000000000000000000000000000000000000000000000000000000000000000                              BRA0000513090000513090893530300010820241015  150013                       00 00000000000000223
CV00893530300010800018981346420240915000000120241015C3000000054000000000010800000005292000546997******81480102189813464   000000027000000000005400000002646634000001152811     0000001057600010020000000000000000000000000000000000000000000000000000000000000000000000000000000                              BRA0000513090000513090893530300010820241015  150031                       00 00000000000000224
CV00893530300010800018989835720240915000000120241015C3000000230200000000046000000022560000516292******54820102189898357   000000115100000000023000000011280634000001152811     0000001607360010020000000000000000000000000000000000000000000000000000000000000000000000000000000                              BRA0000513090000513090893530300010820241015  150041                       00 00000000000000225
CV00893530300010800015812953020240816000000120241015C3000000404000000000080800000039592000545368******92200202158129530   000000202000000000040400000019796634000001152811     0000000985690010020000000000000000000000000000000000000000000000000000000000000000000000000000000                              BRA0000513090000513090893530300010820241015  160017                       00 00000000000000226
CV00893530300010800015831738620240816000000120241015C3000000082230000000016400000008059000546997******98580202158317386   000000041110000000008200000004029634000001152811     0000006406910010020000000000000000000000000000000000000000000000000000000000000000000000000000000                              BRA0000513090000513090893530300010820241015  500024                       00 00000000000000227
CV00893530300010800015865174420240816000000120241015C3000000127320000000025500000012477000550209******22230202158651744   000000063660000000012700000006239634000001152811     0000009268730010020000000000000000000000000000000000000000000000000000000000000000000000000000000                              BRA0000513090000513090893530300010820241015  160081                       00 00000000000000228
CV00893530300010800015871975020240816000000120241015C3000000102840000000020600000010078000516292******19220202158719750   000000051420000000010300000005039634000001152811     0000007177220010020000000000000000000000000000000000000000000000000000000000000000000000000000000                              BRA0000513090000513090893530300010820241015  160086                       00 00000000000000229
CV00893530300010800021630655520241012000000120241014D3000000046000000000004000000004560000439267******23710000000000000000000000000000000000000000000000000634000001152811     0000007993260020030000000000000000000000000000000000000000000000000000000000000000000000000000000                              BRA0000513090000513090893530300010820241014  000005                       00 00000000000000230
CV00893530300010800021534092120241011000000120241014D3000000037660000000003700000003729000650032******53370000000000000000000000000000000000000000000000000634000001152811     0000000833480070060000000000000000000000000000000000000000000000000000000000000000000000000000000                              BRA0000513090000513090893530300010820241014  500019                       00 00000000000000231
CV00893530300010800021535265320241011000000120241014D3000000027540000000002700000002727000650032******53370000000000000000000000000000000000000000000000000634000001152811     0000002541330070060000000000000000000000000000000000000000000000000000000000000000000000000000000                              BRA0000513090000513090893530300010820241014  500020                       00 00000000000000232
CV00893530300010800021536192020241011000000120241014D3000000005000000000000500000000495000650032******53370000000000000000000000000000000000000000000000000634000001152811     0000003427830070060000000000000000000000000000000000000000000000000000000000000000000000000000000                              BRA0000513090000513090893530300010820241014  110048                       00 00000000000000233
CV00893530300010800021538796620241011000000120241014D3000000036000000000003600000003564000650570******19750000000000000000000000000000000000000000000000000634000001152811     0000000306740070060000000000000000000000000000000000000000000000000000000000000000000000000000000                              BRA0000513090000513090893530300010820241014  110052                       00 00000000000000234
CV00893530300010800021543808520241011000000120241014D3000000303220000000030000000030022000650570******18360000000000000000000000000000000000000000000000000634000001152811     0000001250810070060000000000000000000000000000000000000000000000000000000000000000000000000000000                              BRA0000513090000513090893530300010820241014  500025                       00 00000000000000235
L900023300000001391442000236
A9000237000237
