A0002.0a20240917080057432024TRIPAG                        0000000051309N000001
L020240917RE000002
CV00893530300010800019082560320240916000000020241017C3000000034000000000006300000003337000550209******27420000000000000000000000000000000000000000000000000634000001152811     0000000274340010020000000000000000000000000000000000000000000000000000000000000000000000000000000                              BRA0000513090000513090893530300010820241017  000031                       00 00000000000000003
CV00893530300010800019083903620240916000000020241017C3000000073290000000013600000007193000535081******39870000000000000000000000000000000000000000000000000634000001152811     0000006QXZRE0010020000000000000000000000000000000000000000000000000000000000000000000000000000000                              BRA0000513090000513090893530300010820241017  000032                       00 00000000000000004
CV00893530300010800019085056620240916000000020241017C3000000038540000000007100000003783000550209******00490000000000000000000000000000000000000000000000000634000001152811     0000004285980010020000000000000000000000000000000000000000000000000000000000000000000000000000000                              BRA0000513090000513090893530300010820241017  160042                       00 00000000000000005
CV00893530300010800019085389320240916000000020241017C3000000025980000000004800000002550000550209******00490000000000000000000000000000000000000000000000000634000001152811     0000002065140010020000000000000000000000000000000000000000000000000000000000000000000000000000000                              BRA0000513090000513090893530300010820241017  160043                       00 00000000000000006
CV00893530300010800019097077520240916000000020241017C3000000010000000000001900000000981000546997******67910000000000000000000000000000000000000000000000000634000001152811     0000003707450010020000000000000000000000000000000000000000000000000000000000000000000000000000000                              BRA0000513090000513090893530300010820241017  160063                       00 00000000000000007
CV00893530300010800019097230420240916000000020241017C3000000049340000000009100000004843000550209******63790000000000000000000000000000000000000000000000000634000001152811     0000007253190010020000000000000000000000000000000000000000000000000000000000000000000000000000000                              BRA0000513090000513090893530300010820241017  160062                       00 00000000000000008
CV00893530300010800019097647620240916000000020241017C3000000035920000000006600000003526000545368******02770000000000000000000000000000000000000000000000000634000001152811     0000000183580010020000000000000000000000000000000000000000000000000000000000000000000000000000000                              BRA0000513090000513090893530300010820241017  160066                       00 00000000000000009
CV00893530300010800019098268620240916000000020241017C3000000083000000000015400000008146000545368******20770000000000000000000000000000000000000000000000000634000001152811     0000000209830010020000000000000000000000000000000000000000000000000000000000000000000000000000000                              BRA0000513090000513090893530300010820241017  160068                       00 00000000000000010
CV00893530300010800019060866020240916000000020240917D3000000050840000000005000000005034000650570******18360000000000000000000000000000000000000000000000000634000001152811     0000009693240070060000000000000000000000000000000000000000000000000000000000000000000000000000000                              BRA0000513090000513090893530300010820240917  000014                       00 00000000000000011
CV00893530300010800019064134420240916000000020240917D3000000010990000000001100000001088000650529******52090000000000000000000000000000000000000000000000000634000001152811     0000002374260070060000000000000000000000000000000000000000000000000000000000000000000000000000000                              BRA0000513090000513090893530300010820240917  160017                       00 00000000000000012
CV00893530300010800019079133720240916000000020240917D3000000013500000000001300000001337000650529******41080000000000000000000000000000000000000000000000000634000001152811     0000002395540070060000000000000000000000000000000000000000000000000000000000000000000000000000000                              BRA0000513090000513090893530300010820240917  000027                       00 00000000000000013
CV00893530300010800019085561820240916000000020240917D3000000074650000000007400000007391000650489******82070000000000000000000000000000000000000000000000000634000001152811     0000002397260070060000000000000000000000000000000000000000000000000000000000000000000000000000000                              BRA0000513090000513090893530300010820240917  000033                       00 00000000000000014
CV00893530300010800019104838720240916000000020240917D3000000130000000000012900000012871000650032******92140000000000000000000000000000000000000000000000000634000001152811     0000001892150070060000000000000000000000000000000000000000000000000000000000000000000000000000000                              BRA0000513090000513090893530300010820240917  160077                       00 00000000000000015
CV00893530300010800019107370820240916000000020240917D3000000009190000000000900000000910000650042******55010000000000000000000000000000000000000000000000000634000001152811     0000002418460070060000000000000000000000000000000000000000000000000000000000000000000000000000000                              BRA0000513090000513090893530300010820240917  000038                       00 00000000000000016
CV00893530300010800019049332420240916000000020240918C3000000027300000000005100000002679000533920******05170000000000000000000000000000000000000000000000000634000001152811     0000003559000010020000000000000000000000000000000000000000000000000000000000000000000000000000000                              BRA0000513090000513090893530300010820240918  000008                       00 00000000000000017
CV00893530300010800019050138520240916000000020240918C3000000003990000000000700000000392000533920******05170000000000000000000000000000000000000000000000000634000001152811     0000003564970010020000000000000000000000000000000000000000000000000000000000000000000000000000000                              BRA0000513090000513090893530300010820240918  000009                       00 00000000000000018
CV00893530300010800019115994320240916000000020240917D3000000012000000000001000000001190000439267******65580000000000000000000000000000000000000000000000000634000001152811     0000001349080020030000000000000000000000000000000000000000000000000000000000000000000000000000000                              BRA0000513090000513090893530300010820240917  000042                       00 00000000000000019
CV00893530300010800019117240820240916000000020241017C3000000027980000000005200000002746000464127******30400000000000000000000000000000000000000000000000000634000001152811     0000006103460020010000000000000000000000000000000000000000000000000000000000000000000000000000000                              BRA0000513090000513090893530300010820241017  000043                       00 00000000000000020
CV00893530300010800019106333820240916000000020241118C3000000534500000000106900000052381000485464******94120202191063338   000000267250000000053400000026191634000001152811     0000004802240020010000000000000000000000000000000000000000000000000000000000000000000000000000000                              BRA0000513090000513090893530300010820241118  160082                       00 00000000000000021
CV00893530300010800019103845320240916000000020240917D3000000053300000000004600000005284000452204******92080000000000000000000000000000000000000000000000000634000001152811     0000002416450020030000000000000000000000000000000000000000000000000000000000000000000000000000000                              BRA0000513090000513090893530300010820240917  160074                       00 00000000000000022
CV00893530300010800019105484420240916000000020240917D3000000039360000000003400000003902000403236******10240000000000000000000000000000000000000000000000000634000001152811     0000001647820020030000000000000000000000000000000000000000000000000000000000000000000000000000000                              BRA0000513090000513090893530300010820240917  160078                       00 00000000000000023
CV00893530300010800019043957320240916000000020240917D3000000016990000000001500000001684000493108******13610000000000000000000000000000000000000000000000000634000001152811     0000002348920020030000000000000000000000000000000000000000000000000000000000000000000000000000000                              BRA0000513090000513090893530300010820240917  000002                       00 00000000000000024
CV00893530300010800019045221320240916000000020240917D3000000004500000000000400000000446000489639******84530000000000000000000000000000000000000000000000000634000001152811     000000M7Y8E90020030000000000000000000000000000000000000000000000000000000000000000000000000000000                              BRA0000513090000513090893530300010820240917  000004                       00 00000000000000025
CV00893530300010800019047764820240916000000020240917D3000000034850000000003000000003455000485464******88700000000000000000000000000000000000000000000000000634000001152811     0000001290890020030000000000000000000000000000000000000000000000000000000000000000000000000000000                              BRA0000513090000513090893530300010820240917  160004                       00 00000000000000026
CV00893530300010800019048789620240916000000020240917D3000000053570000000004700000005310000489766******80730000000000000000000000000000000000000000000000000634000001152811     0000003298290020030000000000000000000000000000000000000000000000000000000000000000000000000000000                              BRA0000513090000513090893530300010820240917  000007                       00 00000000000000027
CV00893530300010800019053556520240916000000020240917D3000000050000000000004400000004956000410715******81040000000000000000000000000000000000000000000000000634000001152811     0000002359970020030000000000000000000000000000000000000000000000000000000000000000000000000000000                              BRA0000513090000513090893530300010820240917  160012                       00 00000000000000028
CV00893530300010800019061461220240916000000020240917D3000000110490000000009600000010953000400178******92410000000000000000000000000000000000000000000000000634000001152811     0000001384240020030000000000000000000000000000000000000000000000000000000000000000000000000000000                              BRA0000513090000513090893530300010820240917  000016                       00 00000000000000029
CV00893530300010800019067510420240916000000020240917D3000000013500000000001200000001338000439267******89490000000000000000000000000000000000000000000000000634000001152811     0000007551970020030000000000000000000000000000000000000000000000000000000000000000000000000000000                              BRA0000513090000513090893530300010820240917  000018                       00 00000000000000030
CV00893530300010800019067792920240916000000020240917D3000000104000000000009000000010310000498442******01780000000000000000000000000000000000000000000000000634000001152811     0000002421950020030000000000000000000000000000000000000000000000000000000000000000000000000000000                              BRA0000513090000513090893530300010820240917  160026                       00 00000000000000031
CV00893530300010800019068914020240916000000020240917D3000000016400000000001400000001626000439267******65580000000000000000000000000000000000000000000000000634000001152811     0000009610390020030000000000000000000000000000000000000000000000000000000000000000000000000000000                              BRA0000513090000513090893530300010820240917  160028                       00 00000000000000032
CV00893530300010800019072482920240916000000020240917D3000000211000000000018400000020916000485464******65490000000000000000000000000000000000000000000000000634000001152811     0000003450060020030000000000000000000000000000000000000000000000000000000000000000000000000000000                              BRA0000513090000513090893530300010820240917  160030                       00 00000000000000033
CV00893530300010800019078974220240916000000020240917D3000000003990000000000300000000396000496046******01110000000000000000000000000000000000000000000000000634000001152811     0000005822610020030000000000000000000000000000000000000000000000000000000000000000000000000000000                              BRA0000513090000513090893530300010820240917  000026                       00 00000000000000034
CV00893530300010800019079617020240916000000020240917D3000000007390000000000600000000733000404025******06640000000000000000000000000000000000000000000000000634000001152811     0000008516530020030000000000000000000000000000000000000000000000000000000000000000000000000000000                              BRA0000513090000513090893530300010820240917  000028                       00 00000000000000035
CV00893530300010800019082082120240916000000020240917D3000000031880000000002800000003160000485464******65640000000000000000000000000000000000000000000000000634000001152811     0000008530750020030000000000000000000000000000000000000000000000000000000000000000000000000000000                              BRA0000513090000513090893530300010820240917  000030                       00 00000000000000036
CV00893530300010800019085512420240916000000020240917D3000000017200000000001500000001705000439267******39360000000000000000000000000000000000000000000000000634000001152811     0000006950600020030000000000000000000000000000000000000000000000000000000000000000000000000000000                              BRA0000513090000513090893530300010820240917  160044                       00 00000000000000037
CV00893530300010800019106333820240916000000020241016C3000000534500000000106900000052381000485464******94120102191063338   000000267250000000053500000026190634000001152811     0000004802240020010000000000000000000000000000000000000000000000000000000000000000000000000000000                              BRA0000513090000513090893530300010820241016  160082                       00 00000000000000038
CV00893530300010800019102054820240916000000020241017C3000000077180000000014300000007575000485464******55200000000000000000000000000000000000000000000000000634000001152811     0000003526380020010000000000000000000000000000000000000000000000000000000000000000000000000000000                              BRA0000513090000513090893530300010820241017  160073                       00 00000000000000039
CV00893530300010800019108542020240916000000020241017C3000000040000000000007400000003926000498453******97200000000000000000000000000000000000000000000000000634000001152811     0000005192810020010000000000000000000000000000000000000000000000000000000000000000000000000000000                              BRA0000513090000513090893530300010820241017  160086                       00 00000000000000040
CV00893530300010800019048560120240916000000020241017C3000000023190000000004300000002276000489389******70820000000000000000000000000000000000000000000000000634000001152811     0000001503840020010000000000000000000000000000000000000000000000000000000000000000000000000000000                              BRA0000513090000513090893530300010820241017  160006                       00 00000000000000041
CV00893530300010800019078873320240916000000020241017C3000000010800000000002000000001060000415896******48070000000000000000000000000000000000000000000000000634000001152811     0000006340480020010000000000000000000000000000000000000000000000000000000000000000000000000000000                              BRA0000513090000513090893530300010820241017  000025                       00 00000000000000042
CV00893530300010800019081131220240916000000020241017C3000000027470000000005100000002696000410863******27280000000000000000000000000000000000000000000000000634000001152811     0000003244700020010000000000000000000000000000000000000000000000000000000000000000000000000000000                              BRA0000513090000513090893530300010820241017  160036                       00 00000000000000043
CV00893530300010800019086017620240916000000020241017C3000000008200000000001500000000805000425850******35150000000000000000000000000000000000000000000000000634000001152811     0000003032640020010000000000000000000000000000000000000000000000000000000000000000000000000000000                              BRA0000513090000513090893530300010820241017  160047                       00 00000000000000044
CV00893530300010800019112317320240916000000020240917D3000000028840000000002900000002855000650570******88480000000000000000000000000000000000000000000000000634000001152811     0000008088280070060000000000000000000000000000000000000000000000000000000000000000000000000000000                              BRA0000513090000513090893530300010820240917  160097                       00 00000000000000045
CV00893530300010800019111296820240916000000020240917D3000000003990000000000300000000396000550209******42910000000000000000000000000000000000000000000000000634000001152811     0000003835720010040000000000000000000000000000000000000000000000000000000000000000000000000000000                              BRA0000513090000513090893530300010820240917  160094                       00 00000000000000046
CV00893530300010800019113283320240916000000020240917D3000000014890000000001300000001476000550209******67280000000000000000000000000000000000000000000000000634000001152811     0000006251660010040000000000000000000000000000000000000000000000000000000000000000000000000000000                              BRA0000513090000513090893530300010820240917  160098                       00 00000000000000047
CV00893530300010800019115598720240916000000020240917D3000000039000000000003400000003866000550209******78140000000000000000000000000000000000000000000000000634000001152811     0000004331300010040000000000000000000000000000000000000000000000000000000000000000000000000000000                              BRA0000513090000513090893530300010820240917  160102                       00 00000000000000048
CV00893530300010800019118179120240916000000020240917D3000000026000000000002300000002577000223115******50460000000000000000000000000000000000000000000000000634000001152811     0000002107200010040000000000000000000000000000000000000000000000000000000000000000000000000000000                              BRA0000513090000513090893530300010820240917  160108                       00 00000000000000049
CV00893530300010800019111310820240916000000020241017C3000000037000000000006800000003632000550209******68060000000000000000000000000000000000000000000000000634000001152811     0000007391030010020000000000000000000000000000000000000000000000000000000000000000000000000000000                              BRA0000513090000513090893530300010820241017  160095                       00 00000000000000050
CV00893530300010800019112292820240916000000020241017C3000000034980000000006500000003433000230650******61740000000000000000000000000000000000000000000000000634000001152811     000000R053320010020000000000000000000000000000000000000000000000000000000000000000000000000000000                              BRA0000513090000513090893530300010820241017  000040                       00 00000000000000051
CV00893530300010800019112768520240916000000020241017C3000000003800000000000700000000373000546997******40670000000000000000000000000000000000000000000000000634000001152811     0000008340610010020000000000000000000000000000000000000000000000000000000000000000000000000000000                              BRA0000513090000513090893530300010820241017  000041                       00 00000000000000052
CV00893530300010800019088399320240916000000020241118C3000000166520000000033300000016319000524831******94350202190883993   000000083260000000016600000008160634000001152811     0000004806150010020000000000000000000000000000000000000000000000000000000000000000000000000000000                              BRA0000513090000513090893530300010820241118  000034                       00 00000000000000053
CV00893530300010800019110260120240916000000020240917D3000000028000000000002400000002776000550209******03970000000000000000000000000000000000000000000000000634000001152811     0000009192720010040000000000000000000000000000000000000000000000000000000000000000000000000000000                              BRA0000513090000513090893530300010820240917  160093                       00 00000000000000054
CV00893530300010800019060351820240916000000020240917D3000000016780000000001500000001663000524831******65640000000000000000000000000000000000000000000000000634000001152811     0000002655720010040000000000000000000000000000000000000000000000000000000000000000000000000000000                              BRA0000513090000513090893530300010820240917  160016                       00 00000000000000055
CV00893530300010800019061377320240916000000020240917D3000000019390000000001700000001922000521180******62440000000000000000000000000000000000000000000000000634000001152811     0000003905620010040000000000000000000000000000000000000000000000000000000000000000000000000000000                              BRA0000513090000513090893530300010820240917  000015                       00 00000000000000056
CV00893530300010800019064200620240916000000020240917D3000000030000000000002600000002974000544731******79110000000000000000000000000000000000000000000000000634000001152811     0000000903630010040000000000000000000000000000000000000000000000000000000000000000000000000000000                              BRA0000513090000513090893530300010820240917  160019                       00 00000000000000057
CV00893530300010800019064486420240916000000020240917D3000000010500000000000900000001041000544731******79110000000000000000000000000000000000000000000000000634000001152811     0000001102630010040000000000000000000000000000000000000000000000000000000000000000000000000000000                              BRA0000513090000513090893530300010820240917  000017                       00 00000000000000058
CV00893530300010800019068029720240916000000020240917D3000000405000000000035200000040148000230650******07930000000000000000000000000000000000000000000000000634000001152811     000000tjKq8Q0010040000000000000000000000000000000000000000000000000000000000000000000000000000000                              BRA0000513090000513090893530300010820240917  160027                       00 00000000000000059
CV00893530300010800019069243220240916000000020240917D3000000023600000000002100000002339000511477******17060000000000000000000000000000000000000000000000000634000001152811     0000006104620010040000000000000000000000000000000000000000000000000000000000000000000000000000000                              BRA0000513090000513090893530300010820240917  000019                       00 00000000000000060
CV00893530300010800019072210920240916000000020240917D3000000039070000000003400000003873000546997******87660000000000000000000000000000000000000000000000000634000001152811     0000003521820010040000000000000000000000000000000000000000000000000000000000000000000000000000000                              BRA0000513090000513090893530300010820240917  000022                       00 00000000000000061
CV00893530300010800019079501420240916000000020240917D3000000009200000000000800000000912000550209******18490000000000000000000000000000000000000000000000000634000001152811     0000005922270010040000000000000000000000000000000000000000000000000000000000000000000000000000000                              BRA0000513090000513090893530300010820240917  160035                       00 00000000000000062
CV00893530300010800019079676720240916000000020240917D3000000009800000000000900000000971000550209******41410000000000000000000000000000000000000000000000000634000001152811     0000000955260010040000000000000000000000000000000000000000000000000000000000000000000000000000000                              BRA0000513090000513090893530300010820240917  000029                       00 00000000000000063
CV00893530300010800019083647920240916000000020240917D3000000010000000000000900000000991000550209******47820000000000000000000000000000000000000000000000000634000001152811     0000003771910010040000000000000000000000000000000000000000000000000000000000000000000000000000000                              BRA0000513090000513090893530300010820240917  160039                       00 00000000000000064
CV00893530300010800019084750120240916000000020240917D3000000006600000000000600000000654000550209******09190000000000000000000000000000000000000000000000000634000001152811     0000003609330010040000000000000000000000000000000000000000000000000000000000000000000000000000000                              BRA0000513090000513090893530300010820240917  160041                       00 00000000000000065
CV00893530300010800019091652520240916000000020240917D3000000007560000000000700000000749000550209******48940000000000000000000000000000000000000000000000000634000001152811     0000007907920010040000000000000000000000000000000000000000000000000000000000000000000000000000000                              BRA0000513090000513090893530300010820240917  000035                       00 00000000000000066
CV00893530300010800019088399320240916000000020241016C3000000166520000000033300000016319000524831******94350102190883993   000000083260000000016700000008159634000001152811     0000004806150010020000000000000000000000000000000000000000000000000000000000000000000000000000000                              BRA0000513090000513090893530300010820241016  000034                       00 00000000000000067
CV00893530300010800019103982920240916000000020241017C3000000021560000000004000000002116000550209******04470000000000000000000000000000000000000000000000000634000001152811     0000005476670010020000000000000000000000000000000000000000000000000000000000000000000000000000000                              BRA0000513090000513090893530300010820241017  160075                       00 00000000000000068
CV00893530300010800019106160420240916000000020241017C3000000078000000000014400000007656000545505******55650000000000000000000000000000000000000000000000000634000001152811     0000006600450010020000000000000000000000000000000000000000000000000000000000000000000000000000000                              BRA0000513090000513090893530300010820241017  160079                       00 00000000000000069
CV00893530300010800019107814820240916000000020241017C3000000120000000000022200000011778000520132******62100000000000000000000000000000000000000000000000000634000001152811     0000001124400010020000000000000000000000000000000000000000000000000000000000000000000000000000000                              BRA0000513090000513090893530300010820241017  160084                       00 00000000000000070
CV00893530300010800019108948420240916000000020241017C3000000058260000000010800000005718000516292******85950000000000000000000000000000000000000000000000000634000001152811     0000005473370010020000000000000000000000000000000000000000000000000000000000000000000000000000000                              BRA0000513090000513090893530300010820241017  160088                       00 00000000000000071
CV00893530300010800019109272420240916000000020241017C3000000058000000000010700000005693000516292******37980000000000000000000000000000000000000000000000000634000001152811     0000006707440010020000000000000000000000000000000000000000000000000000000000000000000000000000000                              BRA0000513090000513090893530300010820241017  160089                       00 00000000000000072
CV00893530300010800019044091120240916000000020241017C3000000031290000000005800000003071000550209******68060000000000000000000000000000000000000000000000000634000001152811     0000004429640010020000000000000000000000000000000000000000000000000000000000000000000000000000000                              BRA0000513090000513090893530300010820241017  000003                       00 00000000000000073
CV00893530300010800019046481320240916000000020241017C3000000049190000000009100000004828000550209******39590000000000000000000000000000000000000000000000000634000001152811     0000006115740010020000000000000000000000000000000000000000000000000000000000000000000000000000000                              BRA0000513090000513090893530300010820241017  000005                       00 00000000000000074
CV00893530300010800019059056820240916000000020241017C3000000026000000000004800000002552000516292******82880000000000000000000000000000000000000000000000000634000001152811     0000003498110010020000000000000000000000000000000000000000000000000000000000000000000000000000000                              BRA0000513090000513090893530300010820241017  000012                       00 00000000000000075
CV00893530300010800019059127820240916000000020241017C3000000007380000000001400000000724000550209******56910000000000000000000000000000000000000000000000000634000001152811     0000004937070010020000000000000000000000000000000000000000000000000000000000000000000000000000000                              BRA0000513090000513090893530300010820241017  000013                       00 00000000000000076
CV00893530300010800019064349720240916000000020241017C3000000018000000000003300000001767000544731******79110000000000000000000000000000000000000000000000000634000001152811     0000000820630010020000000000000000000000000000000000000000000000000000000000000000000000000000000                              BRA0000513090000513090893530300010820241017  160018                       00 00000000000000077
CV00893530300010800019066563020240916000000020241017C3000000054400000000010100000005339000550209******63300000000000000000000000000000000000000000000000000634000001152811     0000006464740010020000000000000000000000000000000000000000000000000000000000000000000000000000000                              BRA0000513090000513090893530300010820241017  160024                       00 00000000000000078
CV00893530300010800019069994120240916000000020241017C3000000009600000000001800000000942000554475******33510000000000000000000000000000000000000000000000000634000001152811     0000008105570010020000000000000000000000000000000000000000000000000000000000000000000000000000000                              BRA0000513090000513090893530300010820241017  000020                       00 00000000000000079
CV00893530300010800019071780920240916000000020241017C3000000180000000000033300000017667000223115******60650000000000000000000000000000000000000000000000000634000001152811     0000000631470010020000000000000000000000000000000000000000000000000000000000000000000000000000000                              BRA0000513090000513090893530300010820241017  160029                       00 00000000000000080
CV00893530300010800019071911820240916000000020241017C3000000045000000000008300000004417000546997******33080000000000000000000000000000000000000000000000000634000001152811     0000002903170010020000000000000000000000000000000000000000000000000000000000000000000000000000000                              BRA0000513090000513090893530300010820241017  000021                       00 00000000000000081
CV00893530300010800019075584620240916000000020241017C3000000006690000000001200000000657000230744******99870000000000000000000000000000000000000000000000000634000001152811     0000009366440010020000000000000000000000000000000000000000000000000000000000000000000000000000000                              BRA0000513090000513090893530300010820241017  000024                       00 00000000000000082
CV00893530300010800019053556520240916000000120240917D3000000050000000000004400000004956000410715******81040000000000000000000000000000000000000000000000000634000001152811     0000002359970020030000000000000000000000000000000000000000000000000000000000000000000000000000000                              BRA0000513090000513090893530300010820240917  160012                       00 00000000000000083
CV00893530300010800019072482920240916000000120240917D3000000211000000000018400000020916000485464******65490000000000000000000000000000000000000000000000000634000001152811     0000003450060020030000000000000000000000000000000000000000000000000000000000000000000000000000000                              BRA0000513090000513090893530300010820240917  160030                       00 00000000000000084
CV00893530300010800019078974220240916000000120240917D3000000003990000000000300000000396000496046******01110000000000000000000000000000000000000000000000000634000001152811     0000005822610020030000000000000000000000000000000000000000000000000000000000000000000000000000000                              BRA0000513090000513090893530300010820240917  000026                       00 00000000000000085
CV00893530300010800019079617020240916000000120240917D3000000007390000000000600000000733000404025******06640000000000000000000000000000000000000000000000000634000001152811     0000008516530020030000000000000000000000000000000000000000000000000000000000000000000000000000000                              BRA0000513090000513090893530300010820240917  000028                       00 00000000000000086
CV00893530300010800019082082120240916000000120240917D3000000031880000000002800000003160000485464******65640000000000000000000000000000000000000000000000000634000001152811     0000008530750020030000000000000000000000000000000000000000000000000000000000000000000000000000000                              BRA0000513090000513090893530300010820240917  000030                       00 00000000000000087
CV00893530300010800019085512420240916000000120240917D3000000017200000000001500000001705000439267******39360000000000000000000000000000000000000000000000000634000001152811     0000006950600020030000000000000000000000000000000000000000000000000000000000000000000000000000000                              BRA0000513090000513090893530300010820240917  160044                       00 00000000000000088
CV00893530300010800019061461220240916000000120240917D3000000110490000000009600000010953000400178******92410000000000000000000000000000000000000000000000000634000001152811     0000001384240020030000000000000000000000000000000000000000000000000000000000000000000000000000000                              BRA0000513090000513090893530300010820240917  000016                       00 00000000000000089
CV00893530300010800019067510420240916000000120240917D3000000013500000000001200000001338000439267******89490000000000000000000000000000000000000000000000000634000001152811     0000007551970020030000000000000000000000000000000000000000000000000000000000000000000000000000000                              BRA0000513090000513090893530300010820240917  000018                       00 00000000000000090
CV00893530300010800019067792920240916000000120240917D3000000104000000000009000000010310000498442******01780000000000000000000000000000000000000000000000000634000001152811     0000002421950020030000000000000000000000000000000000000000000000000000000000000000000000000000000                              BRA0000513090000513090893530300010820240917  160026                       00 00000000000000091
CV00893530300010800019115994320240916000000120240917D3000000012000000000001000000001190000439267******65580000000000000000000000000000000000000000000000000634000001152811     0000001349080020030000000000000000000000000000000000000000000000000000000000000000000000000000000                              BRA0000513090000513090893530300010820240917  000042                       00 00000000000000092
CV00893530300010800019110260120240916000000120240917D3000000028000000000002400000002776000550209******03970000000000000000000000000000000000000000000000000634000001152811     0000009192720010040000000000000000000000000000000000000000000000000000000000000000000000000000000                              BRA0000513090000513090893530300010820240917  160093                       00 00000000000000093
CV00893530300010800019069243220240916000000120240917D3000000023600000000002100000002339000511477******17060000000000000000000000000000000000000000000000000634000001152811     0000006104620010040000000000000000000000000000000000000000000000000000000000000000000000000000000                              BRA0000513090000513090893530300010820240917  000019                       00 00000000000000094
CV00893530300010800019060351820240916000000120240917D3000000016780000000001500000001663000524831******65640000000000000000000000000000000000000000000000000634000001152811     0000002655720010040000000000000000000000000000000000000000000000000000000000000000000000000000000                              BRA0000513090000513090893530300010820240917  160016                       00 00000000000000095
CV00893530300010800019072210920240916000000120240917D3000000039070000000003400000003873000546997******87660000000000000000000000000000000000000000000000000634000001152811     0000003521820010040000000000000000000000000000000000000000000000000000000000000000000000000000000                              BRA0000513090000513090893530300010820240917  000022                       00 00000000000000096
CV00893530300010800019079501420240916000000120240917D3000000009200000000000800000000912000550209******18490000000000000000000000000000000000000000000000000634000001152811     0000005922270010040000000000000000000000000000000000000000000000000000000000000000000000000000000                              BRA0000513090000513090893530300010820240917  160035                       00 00000000000000097
CV00893530300010800019079676720240916000000120240917D3000000009800000000000900000000971000550209******41410000000000000000000000000000000000000000000000000634000001152811     0000000955260010040000000000000000000000000000000000000000000000000000000000000000000000000000000                              BRA0000513090000513090893530300010820240917  000029                       00 00000000000000098
CV00893530300010800019083647920240916000000120240917D3000000010000000000000900000000991000550209******47820000000000000000000000000000000000000000000000000634000001152811     0000003771910010040000000000000000000000000000000000000000000000000000000000000000000000000000000                              BRA0000513090000513090893530300010820240917  160039                       00 00000000000000099
CV00893530300010800019084750120240916000000120240917D3000000006600000000000600000000654000550209******09190000000000000000000000000000000000000000000000000634000001152811     0000003609330010040000000000000000000000000000000000000000000000000000000000000000000000000000000                              BRA0000513090000513090893530300010820240917  160041                       00 00000000000000100
CV00893530300010800019091652520240916000000120240917D3000000007560000000000700000000749000550209******48940000000000000000000000000000000000000000000000000634000001152811     0000007907920010040000000000000000000000000000000000000000000000000000000000000000000000000000000                              BRA0000513090000513090893530300010820240917  000035                       00 00000000000000101
CV00893530300010800019061377320240916000000120240917D3000000019390000000001700000001922000521180******62440000000000000000000000000000000000000000000000000634000001152811     0000003905620010040000000000000000000000000000000000000000000000000000000000000000000000000000000                              BRA0000513090000513090893530300010820240917  000015                       00 00000000000000102
CV00893530300010800019064200620240916000000120240917D3000000030000000000002600000002974000544731******79110000000000000000000000000000000000000000000000000634000001152811     0000000903630010040000000000000000000000000000000000000000000000000000000000000000000000000000000                              BRA0000513090000513090893530300010820240917  160019                       00 00000000000000103
CV00893530300010800019064486420240916000000120240917D3000000010500000000000900000001041000544731******79110000000000000000000000000000000000000000000000000634000001152811     0000001102630010040000000000000000000000000000000000000000000000000000000000000000000000000000000                              BRA0000513090000513090893530300010820240917  000017                       00 00000000000000104
CV00893530300010800019068029720240916000000120240917D3000000405000000000035200000040148000230650******07930000000000000000000000000000000000000000000000000634000001152811     000000tjKq8Q0010040000000000000000000000000000000000000000000000000000000000000000000000000000000                              BRA0000513090000513090893530300010820240917  160027                       00 00000000000000105
CV00893530300010800019111296820240916000000120240917D3000000003990000000000300000000396000550209******42910000000000000000000000000000000000000000000000000634000001152811     0000003835720010040000000000000000000000000000000000000000000000000000000000000000000000000000000                              BRA0000513090000513090893530300010820240917  160094                       00 00000000000000106
CV00893530300010800019113283320240916000000120240917D3000000014890000000001300000001476000550209******67280000000000000000000000000000000000000000000000000634000001152811     0000006251660010040000000000000000000000000000000000000000000000000000000000000000000000000000000                              BRA0000513090000513090893530300010820240917  160098                       00 00000000000000107
CV00893530300010800019115598720240916000000120240917D3000000039000000000003400000003866000550209******78140000000000000000000000000000000000000000000000000634000001152811     0000004331300010040000000000000000000000000000000000000000000000000000000000000000000000000000000                              BRA0000513090000513090893530300010820240917  160102                       00 00000000000000108
CV00893530300010800019118179120240916000000120240917D3000000026000000000002300000002577000223115******50460000000000000000000000000000000000000000000000000634000001152811     0000002107200010040000000000000000000000000000000000000000000000000000000000000000000000000000000                              BRA0000513090000513090893530300010820240917  160108                       00 00000000000000109
CV00893530300010800019104838720240916000000120240917D3000000130000000000012900000012871000650032******92140000000000000000000000000000000000000000000000000634000001152811     0000001892150070060000000000000000000000000000000000000000000000000000000000000000000000000000000                              BRA0000513090000513090893530300010820240917  160077                       00 00000000000000110
CV00893530300010800019107370820240916000000120240917D3000000009190000000000900000000910000650042******55010000000000000000000000000000000000000000000000000634000001152811     0000002418460070060000000000000000000000000000000000000000000000000000000000000000000000000000000                              BRA0000513090000513090893530300010820240917  000038                       00 00000000000000111
CV00893530300010800019079133720240916000000120240917D3000000013500000000001300000001337000650529******41080000000000000000000000000000000000000000000000000634000001152811     0000002395540070060000000000000000000000000000000000000000000000000000000000000000000000000000000                              BRA0000513090000513090893530300010820240917  000027                       00 00000000000000112
CV00893530300010800019085561820240916000000120240917D3000000074650000000007400000007391000650489******82070000000000000000000000000000000000000000000000000634000001152811     0000002397260070060000000000000000000000000000000000000000000000000000000000000000000000000000000                              BRA0000513090000513090893530300010820240917  000033                       00 00000000000000113
CV00893530300010800019060866020240916000000120240917D3000000050840000000005000000005034000650570******18360000000000000000000000000000000000000000000000000634000001152811     0000009693240070060000000000000000000000000000000000000000000000000000000000000000000000000000000                              BRA0000513090000513090893530300010820240917  000014                       00 00000000000000114
CV00893530300010800019064134420240916000000120240917D3000000010990000000001100000001088000650529******52090000000000000000000000000000000000000000000000000634000001152811     0000002374260070060000000000000000000000000000000000000000000000000000000000000000000000000000000                              BRA0000513090000513090893530300010820240917  160017                       00 00000000000000115
CV00893530300010800019112317320240916000000120240917D3000000028840000000002900000002855000650570******88480000000000000000000000000000000000000000000000000634000001152811     0000008088280070060000000000000000000000000000000000000000000000000000000000000000000000000000000                              BRA0000513090000513090893530300010820240917  160097                       00 00000000000000116
CV00893530300010800019014964320240915000000120240916D3000000017650000000001500000001750000550209******41080000000000000000000000000000000000000000000000000634000001152811     0000003077470010040000000000000000000000000000000000000000000000000000000000000000000000000000000                              BRA0000513090000513090893530300010820240916  500030                       00 00000000000000117
CV00893530300010800018968806320240915000000120240916D3000000005890000000000500000000584000234074******80240000000000000000000000000000000000000000000000000634000001152811     0000005346700010040000000000000000000000000000000000000000000000000000000000000000000000000000000                              BRA0000513090000513090893530300010820240916  500003                       00 00000000000000118
CV00893530300010800018997716520240915000000120240916D3000000016790000000001500000001664000546997******81480000000000000000000000000000000000000000000000000634000001152811     0000007189620010040000000000000000000000000000000000000000000000000000000000000000000000000000000                              BRA0000513090000513090893530300010820240916  500014                       00 00000000000000119
CV00893530300010800018998151720240915000000120240916D3000000051990000000004500000005154000550209******57620000000000000000000000000000000000000000000000000634000001152811     0000007948180010040000000000000000000000000000000000000000000000000000000000000000000000000000000                              BRA0000513090000513090893530300010820240916  500015                       00 00000000000000120
CV00893530300010800018998237320240915000000120240916D3000000024000000000002100000002379000552693******07410000000000000000000000000000000000000000000000000634000001152811     0000001711630010040000000000000000000000000000000000000000000000000000000000000000000000000000000                              BRA0000513090000513090893530300010820240916  500016                       00 00000000000000121
CV00893530300010800018998687820240915000000120240916D3000000146000000000012700000014473000550209******27690000000000000000000000000000000000000000000000000634000001152811     0000001098250010040000000000000000000000000000000000000000000000000000000000000000000000000000000                              BRA0000513090000513090893530300010820240916  150056                       00 00000000000000122
CV00893530300010800018999963620240915000000120240916D3000000005000000000000400000000496000234074******80210000000000000000000000000000000000000000000000000634000001152811     0000008845260010040000000000000000000000000000000000000000000000000000000000000000000000000000000                              BRA0000513090000513090893530300010820240916  500018                       00 00000000000000123
CV00893530300010800018968858920240915000000120240916D3000000007670000000000700000000760000550209******41010000000000000000000000000000000000000000000000000634000001152811     0000001461100010040000000000000000000000000000000000000000000000000000000000000000000000000000000                              BRA0000513090000513090893530300010820240916  500004                       00 00000000000000124
CV00893530300010800018969002320240915000000120240916D3000000003300000000000300000000327000234074******80240000000000000000000000000000000000000000000000000634000001152811     0000005371310010040000000000000000000000000000000000000000000000000000000000000000000000000000000                              BRA0000513090000513090893530300010820240916  150017                       00 00000000000000125
CV00893530300010800018969367320240915000000120240916D3000000003700000000000300000000367000230650******96180000000000000000000000000000000000000000000000000634000001152811     000000zzkeS70010040000000000000000000000000000000000000000000000000000000000000000000000000000000                              BRA0000513090000513090893530300010820240916  500005                       00 00000000000000126
CV00893530300010800018979795020240915000000120240916D3000000015190000000001300000001506000223115******80240000000000000000000000000000000000000000000000000634000001152811     0000006566580010040000000000000000000000000000000000000000000000000000000000000000000000000000000                              BRA0000513090000513090893530300010820240916  500007                       00 00000000000000127
CV00893530300010800018986527720240915000000120240916D3000000036870000000003200000003655000550209******15140000000000000000000000000000000000000000000000000634000001152811     0000009461580010040000000000000000000000000000000000000000000000000000000000000000000000000000000                              BRA0000513090000513090893530300010820240916  150036                       00 00000000000000128
CV00893530300010800018987190220240915000000120240916D3000000015990000000001400000001585000546997******14370000000000000000000000000000000000000000000000000634000001152811     0000009051920010040000000000000000000000000000000000000000000000000000000000000000000000000000000                              BRA0000513090000513090893530300010820240916  500009                       00 00000000000000129
CV00893530300010800018987641920240915000000120240916D3000000004700000000000400000000466000550209******91270000000000000000000000000000000000000000000000000634000001152811     0000006086310010040000000000000000000000000000000000000000000000000000000000000000000000000000000                              BRA0000513090000513090893530300010820240916  500010                       00 00000000000000130
CV00893530300010800018992589120240915000000120240916D3000000038500000000003300000003817000550209******91790000000000000000000000000000000000000000000000000634000001152811     0000007667560010040000000000000000000000000000000000000000000000000000000000000000000000000000000                              BRA0000513090000513090893530300010820240916  150045                       00 00000000000000131
CV00893530300010800018993112320240915000000120240916D3000000016800000000001500000001665000550209******45140000000000000000000000000000000000000000000000000634000001152811     0000006307120010040000000000000000000000000000000000000000000000000000000000000000000000000000000                              BRA0000513090000513090893530300010820240916  150046                       00 00000000000000132
CV00893530300010800018995968520240915000000120240916D3000000025450000000002200000002523000230650******56130000000000000000000000000000000000000000000000000634000001152811     000000v3AVKp0010040000000000000000000000000000000000000000000000000000000000000000000000000000000                              BRA0000513090000513090893530300010820240916  150049                       00 00000000000000133
CV00893530300010800018980173920240915000000120240916D3000000040000000000004000000003960000506722******79810000000000000000000000000000000000000000000000000634000001152811     0000007068040070060000000000000000000000000000000000000000000000000000000000000000000000000000000                              BRA0000513090000513090893530300010820240916  150028                       00 00000000000000134
CV00893530300010800018989595720240915000000120240916D3000000022700000000002200000002248000650489******91090000000000000000000000000000000000000000000000000634000001152811     0000002226940070060000000000000000000000000000000000000000000000000000000000000000000000000000000                              BRA0000513090000513090893530300010820240916  150040                       00 00000000000000135
CV00893530300010800019103845320240916000000120240917D3000000053300000000004600000005284000452204******92080000000000000000000000000000000000000000000000000634000001152811     0000002416450020030000000000000000000000000000000000000000000000000000000000000000000000000000000                              BRA0000513090000513090893530300010820240917  160074                       00 00000000000000136
CV00893530300010800019043957320240916000000120240917D3000000016990000000001500000001684000493108******13610000000000000000000000000000000000000000000000000634000001152811     0000002348920020030000000000000000000000000000000000000000000000000000000000000000000000000000000                              BRA0000513090000513090893530300010820240917  000002                       00 00000000000000137
CV00893530300010800019105484420240916000000120240917D3000000039360000000003400000003902000403236******10240000000000000000000000000000000000000000000000000634000001152811     0000001647820020030000000000000000000000000000000000000000000000000000000000000000000000000000000                              BRA0000513090000513090893530300010820240917  160078                       00 00000000000000138
CV00893530300010800019068914020240916000000120240917D3000000016400000000001400000001626000439267******65580000000000000000000000000000000000000000000000000634000001152811     0000009610390020030000000000000000000000000000000000000000000000000000000000000000000000000000000                              BRA0000513090000513090893530300010820240917  160028                       00 00000000000000139
CV00893530300010800019045221320240916000000120240917D3000000004500000000000400000000446000489639******84530000000000000000000000000000000000000000000000000634000001152811     000000M7Y8E90020030000000000000000000000000000000000000000000000000000000000000000000000000000000                              BRA0000513090000513090893530300010820240917  000004                       00 00000000000000140
CV00893530300010800019047764820240916000000120240917D3000000034850000000003000000003455000485464******88700000000000000000000000000000000000000000000000000634000001152811     0000001290890020030000000000000000000000000000000000000000000000000000000000000000000000000000000                              BRA0000513090000513090893530300010820240917  160004                       00 00000000000000141
CV00893530300010800019048789620240916000000120240917D3000000053570000000004700000005310000489766******80730000000000000000000000000000000000000000000000000634000001152811     0000003298290020030000000000000000000000000000000000000000000000000000000000000000000000000000000                              BRA0000513090000513090893530300010820240917  000007                       00 00000000000000142
CV00893530300010800018999701020240915000000120240916D3000000057380000000005000000005688000230650******15620000000000000000000000000000000000000000000000000634000001152811     000000LmpEk70010040000000000000000000000000000000000000000000000000000000000000000000000000000000                              BRA0000513090000513090893530300010820240916  150058                       00 00000000000000143
CV00893530300010800019014735720240915000000120240916D3000000020680000000001800000002050000404025******14590000000000000000000000000000000000000000000000000634000001152811     0000008086300020030000000000000000000000000000000000000000000000000000000000000000000000000000000                              BRA0000513090000513090893530300010820240916  500029                       00 00000000000000144
CV00893530300010800018967833820240915000000120240916D3000000068570000000006000000006797000410863******51480000000000000000000000000000000000000000000000000634000001152811     0000000439580020030000000000000000000000000000000000000000000000000000000000000000000000000000000                              BRA0000513090000513090893530300010820240916  500002                       00 00000000000000145
CV00893530300010800018998872520240915000000120240916D3000000025200000000002200000002498000490144******47160000000000000000000000000000000000000000000000000634000001152811     0000007899140020030000000000000000000000000000000000000000000000000000000000000000000000000000000                              BRA0000513090000513090893530300010820240916  150057                       00 00000000000000146
CV00893530300010800018996899620240915000000120240916D3000000005980000000000500000000593000489766******37580000000000000000000000000000000000000000000000000634000001152811     0000002402560020030000000000000000000000000000000000000000000000000000000000000000000000000000000                              BRA0000513090000513090893530300010820240916  500013                       00 00000000000000147
CV00893530300010800019002768120240915000000120240916D3000000046480000000004000000004608000550209******55800000000000000000000000000000000000000000000000000634000001152811     0000004694540010040000000000000000000000000000000000000000000000000000000000000000000000000000000                              BRA0000513090000513090893530300010820240916  150062                       00 00000000000000148
CV00893530300010800019012566020240915000000120240916D3000000211690000000018400000020985000550209******87120000000000000000000000000000000000000000000000000634000001152811     0000007210440010040000000000000000000000000000000000000000000000000000000000000000000000000000000                              BRA0000513090000513090893530300010820240916  150067                       00 00000000000000149
CV00893530300010800016157186920240819000000120240918C3000000215220000000043000000021092000485464******07160102161571869   000000107610000000021500000010546634000001152811     0000002352480020010000000000000000000000000000000000000000000000000000000000000000000000000000000                              BRA0000513090000513090893530300010820240918  190015                       00 00000000000000150
CV00893530300010800016052759420240818000000120240918C3000000087400000000016200000008578000409281******51150000000000000000000000000000000000000000000000000634000001152811     0000006853240020010000000000000000000000000000000000000000000000000000000000000000000000000000000                              BRA0000513090000513090893530300010820240918  180008                       00 00000000000000151
CV00893530300010800012637778920240719000000120240918C3000000100000000000020000000009800000485464******00340202126377789   000000050000000000010000000004900634000001152811     0000009684630020010000000000000000000000000000000000000000000000000000000000000000000000000000000                              BRA0000513090000513090893530300010820240918  190010                       00 00000000000000152
CV00893530300010800012663109020240719000000120240918C3000000401500000000080300000039347000498442******92760202126631090   000000200750000000040100000019674634000001152811     0000008852760020010000000000000000000000000000000000000000000000000000000000000000000000000000000                              BRA0000513090000513090893530300010820240918  190043                       00 00000000000000153
CV00893530300010800016214538520240819000000120240918C3000000078000000000015600000007644000550209******56920102162145385   000000039000000000007800000003822634000001152811     0000003284420010020000000000000000000000000000000000000000000000000000000000000000000000000000000                              BRA0000513090000513090893530300010820240918  190092                       00 00000000000000154
CV00893530300010800016209238020240819000000120240918C3000000075980000000015200000007446000516292******73740102162092380   000000037990000000007600000003723634000001152811     0000006067130010020000000000000000000000000000000000000000000000000000000000000000000000000000000                              BRA0000513090000513090893530300010820240918  000034                       00 00000000000000155
CV00893530300010800016157376020240819000000120240918C3000000130000000000026000000012740000550209******73820102161573760   000000065000000000013000000006370634000001152811     0000007436430010020000000000000000000000000000000000000000000000000000000000000000000000000000000                              BRA0000513090000513090893530300010820240918  190016                       00 00000000000000156
CV00893530300010800016199989020240819000000120240918C3000000276000000000055200000027048000539083******69400102161999890   000000138000000000027600000013524634000001152811     0000000632960010020000000000000000000000000000000000000000000000000000000000000000000000000000000                              BRA0000513090000513090893530300010820240918  190071                       00 00000000000000157
CV00893530300010800016061695720240818000000120240918C3000000022920000000004200000002250000223525******37080000000000000000000000000000000000000000000000000634000001152811     0000005835440010020000000000000000000000000000000000000000000000000000000000000000000000000000000                              BRA0000513090000513090893530300010820240918  500006                       00 00000000000000158
CV00893530300010800016063657220240818000000120240918C3000000016900000000003100000001659000546997******87700000000000000000000000000000000000000000000000000634000001152811     0000006018830010020000000000000000000000000000000000000000000000000000000000000000000000000000000                              BRA0000513090000513090893530300010820240918  500007                       00 00000000000000159
CV00893530300010800016063771620240818000000120240918C3000000029000000000005400000002846000548514******81280000000000000000000000000000000000000000000000000634000001152811     0000000619350010020000000000000000000000000000000000000000000000000000000000000000000000000000000                              BRA0000513090000513090893530300010820240918  180012                       00 00000000000000160
CV00893530300010800016078163220240818000000120240918C3000000038500000000007100000003779000545368******73140000000000000000000000000000000000000000000000000634000001152811     0000000015400010020000000000000000000000000000000000000000000000000000000000000000000000000000000                              BRA0000513090000513090893530300010820240918  180024                       00 00000000000000161
CV00893530300010800016078267820240818000000120240918C3000000037620000000007000000003692000516292******15460000000000000000000000000000000000000000000000000634000001152811     0000008006800010020000000000000000000000000000000000000000000000000000000000000000000000000000000                              BRA0000513090000513090893530300010820240918  500013                       00 00000000000000162
CV00893530300010800016094187220240818000000120240918C3000000016290000000003000000001599000550209******49980000000000000000000000000000000000000000000000000634000001152811     0000006009330010020000000000000000000000000000000000000000000000000000000000000000000000000000000                              BRA0000513090000513090893530300010820240918  500023                       00 00000000000000163
CV00893530300010800016094728320240818000000120240918C3000000031270000000005800000003069000546997******97440000000000000000000000000000000000000000000000000634000001152811     0000008881100010020000000000000000000000000000000000000000000000000000000000000000000000000000000                              BRA0000513090000513090893530300010820240918  500024                       00 00000000000000164
CV00893530300010800016096567820240818000000120240918C3000000040160000000007400000003942000547037******02750000000000000000000000000000000000000000000000000634000001152811     0000004043570010020000000000000000000000000000000000000000000000000000000000000000000000000000000                              BRA0000513090000513090893530300010820240918  180039                       00 00000000000000165
CV00893530300010800016102899320240818000000120240918C3000000015000000000002800000001472000550209******06750000000000000000000000000000000000000000000000000634000001152811     0000002396940010020000000000000000000000000000000000000000000000000000000000000000000000000000000                              BRA0000513090000513090893530300010820240918  180052                       00 00000000000000166
CV00893530300010800016100175020240818000000120240918C3000000034990000000006500000003434000516292******08770000000000000000000000000000000000000000000000000634000001152811     0000004925720010020000000000000000000000000000000000000000000000000000000000000000000000000000000                              BRA0000513090000513090893530300010820240918  500031                       00 00000000000000167
CV00893530300010800016096842320240818000000120240918C3000000010000000000001900000000981000526326******19270000000000000000000000000000000000000000000000000634000001152811     0000003919440010020000000000000000000000000000000000000000000000000000000000000000000000000000000                              BRA0000513090000513090893530300010820240918  500027                       00 00000000000000168
CV00893530300010800016081081520240818000000120240918C3000000067000000000012400000006576000550209******49980000000000000000000000000000000000000000000000000634000001152811     0000006282430010020000000000000000000000000000000000000000000000000000000000000000000000000000000                              BRA0000513090000513090893530300010820240918  180031                       00 00000000000000169
CV00893530300010800016104334320240818000000120240918C3000000006500000000001200000000638000550209******93420000000000000000000000000000000000000000000000000634000001152811     0000008096960010020000000000000000000000000000000000000000000000000000000000000000000000000000000                              BRA0000513090000513090893530300010820240918  180055                       00 00000000000000170
CV00893530300010800016104875420240818000000120240918C3000000021200000000003900000002081000546997******40670000000000000000000000000000000000000000000000000634000001152811     0000000086280010020000000000000000000000000000000000000000000000000000000000000000000000000000000                              BRA0000513090000513090893530300010820240918  180059                       00 00000000000000171
CV00893530300010800016047648320240818000000120240918C3000000068550000000012700000006728000550209******35570000000000000000000000000000000000000000000000000634000001152811     0000003053500010020000000000000000000000000000000000000000000000000000000000000000000000000000000                              BRA0000513090000513090893530300010820240918  180001                       00 00000000000000172
CV00893530300010800016048586520240818000000120240918C3000000019000000000003500000001865000521180******13060000000000000000000000000000000000000000000000000634000001152811     0000003148570010020000000000000000000000000000000000000000000000000000000000000000000000000000000                              BRA0000513090000513090893530300010820240918  180002                       00 00000000000000173
CV00893530300010800016048680120240818000000120240918C3000000057910000000010700000005684000550209******90000000000000000000000000000000000000000000000000000634000001152811     0000002710460010020000000000000000000000000000000000000000000000000000000000000000000000000000000                              BRA0000513090000513090893530300010820240918  180003                       00 00000000000000174
CV00893530300010800016050170520240818000000120240918C3000000061720000000011400000006058000223063******85180000000000000000000000000000000000000000000000000634000001152811     0000005073030010020000000000000000000000000000000000000000000000000000000000000000000000000000000                              BRA0000513090000513090893530300010820240918  500002                       00 00000000000000175
CV00893530300010800016056671320240818000000120240918C3000000017100000000003200000001678000535016******53450000000000000000000000000000000000000000000000000634000001152811     0000002625710010020000000000000000000000000000000000000000000000000000000000000000000000000000000                              BRA0000513090000513090893530300010820240918  500004                       00 00000000000000176
CV00893530300010800016082714220240818000000120240918C3000000063090000000011700000006192000550209******73820000000000000000000000000000000000000000000000000634000001152811     0000009781900010020000000000000000000000000000000000000000000000000000000000000000000000000000000                              BRA0000513090000513090893530300010820240918  500019                       00 00000000000000177
CV00893530300010800016083122320240818000000120240918C3000000049580000000009200000004866000516292******46510000000000000000000000000000000000000000000000000634000001152811     0000004100290010020000000000000000000000000000000000000000000000000000000000000000000000000000000                              BRA0000513090000513090893530300010820240918  500018                       00 00000000000000178
CV00893530300010800016090622420240818000000120240918C3000000070500000000013000000006920000516292******85950000000000000000000000000000000000000000000000000634000001152811     0000001515120010020000000000000000000000000000000000000000000000000000000000000000000000000000000                              BRA0000513090000513090893530300010820240918  180037                       00 00000000000000179
CV00893530300010800019050138520240916000000120240918C3000000003990000000000700000000392000533920******05170000000000000000000000000000000000000000000000000634000001152811     0000003564970010020000000000000000000000000000000000000000000000000000000000000000000000000000000                              BRA0000513090000513090893530300010820240918  000009                       00 00000000000000180
CV00893530300010800019049332420240916000000120240918C3000000027300000000005100000002679000533920******05170000000000000000000000000000000000000000000000000634000001152811     0000003559000010020000000000000000000000000000000000000000000000000000000000000000000000000000000                              BRA0000513090000513090893530300010820240918  000008                       00 00000000000000181
CV00893530300010800012789969320240720000000120240918C3000000160000000000032000000015680000550209******93820202127899693   000000080000000000016000000007840634000001152811     0000004963360010020000000000000000000000000000000000000000000000000000000000000000000000000000000                              BRA0000513090000513090893530300010820240918  200035                       00 00000000000000182
CV00893530300010800012851891920240720000000120240918C3000000094800000000019000000009290000550209******92120202128518919   000000047400000000009500000004645634000001152811     0000003754050010020000000000000000000000000000000000000000000000000000000000000000000000000000000                              BRA0000513090000513090893530300010820240918  000051                       00 00000000000000183
CV00893530300010800012817428720240720000000120240918C3000000126290000000025300000012376000516292******94050202128174287   000000063140000000012600000006188634000001152811     0000003403600010020000000000000000000000000000000000000000000000000000000000000000000000000000000                              BRA0000513090000513090893530300010820240918  000037                       00 00000000000000184
CV00893530300010800012848050220240720000000120240918C3000000233000000000046600000022834000526326******65040202128480502   000000116500000000023300000011417634000001152811     0000009275760010020000000000000000000000000000000000000000000000000000000000000000000000000000000                              BRA0000513090000513090893530300010820240918  200077                       00 00000000000000185
CV00893530300010800012851627720240720000000120240918C3000000167000000000033400000016366000546997******75280202128516277   000000083500000000016700000008183634000001152811     0000008600410010020000000000000000000000000000000000000000000000000000000000000000000000000000000                              BRA0000513090000513090893530300010820240918  200080                       00 00000000000000186
CV00893530300010800012761744220240720000000120240918C3000000040290000000008100000003948000546997******71960202127617442   000000020140000000004000000001974634000001152811     0000002299930010020000000000000000000000000000000000000000000000000000000000000000000000000000000                              BRA0000513090000513090893530300010820240918  000010                       00 00000000000000187
CV00893530300010800012771340720240720000000120240918C3000000244870000000049000000023997000516292******32250202127713407   000000122430000000024500000011998634000001152811     0000005706300010020000000000000000000000000000000000000000000000000000000000000000000000000000000                              BRA0000513090000513090893530300010820240918  200022                       00 00000000000000188
CV00893530300010800012762558120240720000000120240918C3000000066320000000013300000006499000535858******91490202127625581   000000033160000000006600000003250634000001152811     000000POA4240010020000000000000000000000000000000000000000000000000000000000000000000000000000000                              BRA0000513090000513090893530300010820240918  200016                       00 00000000000000189
CV00893530300010800016083850520240818000000120240918C3000000011620000000002500000001137000509410******68960000000000000000000000000000000000000000000000000634000001152811     0000006408640070050000000000000000000000000000000000000000000000000000000000000000000000000000000                              BRA0000513090000513090893530300010820240918  500021                       00 00000000000000190
CV00893530300010800016077624120240818000000120240918C3000000031560000000005800000003098000400634******97140000000000000000000000000000000000000000000000000634000001152811     0000000367550020010000000000000000000000000000000000000000000000000000000000000000000000000000000                              BRA0000513090000513090893530300010820240918  500012                       00 00000000000000191
CV00893530300010800016102594120240818000000120240918C3000000062400000000011500000006125000485464******09490000000000000000000000000000000000000000000000000634000001152811     0000004799630020010000000000000000000000000000000000000000000000000000000000000000000000000000000                              BRA0000513090000513090893530300010820240918  180051                       00 00000000000000192
CV00893530300010800016108321620240818000000120240918C3000000012750000000002400000001251000485464******29220000000000000000000000000000000000000000000000000634000001152811     0000006284820020010000000000000000000000000000000000000000000000000000000000000000000000000000000                              BRA0000513090000513090893530300010820240918  180065                       00 00000000000000193
L900019100000001080825000194
A9000195000195
